{
  "contractName": "Foxcon2022",
  "abi": [
    {
      "inputs": [],
      "stateMutability": "nonpayable",
      "type": "constructor"
    },
    {
      "anonymous": false,
      "inputs": [
        {
          "indexed": true,
          "internalType": "address",
          "name": "owner",
          "type": "address"
        },
        {
          "indexed": true,
          "internalType": "address",
          "name": "approved",
          "type": "address"
        },
        {
          "indexed": true,
          "internalType": "uint256",
          "name": "tokenId",
          "type": "uint256"
        }
      ],
      "name": "Approval",
      "type": "event"
    },
    {
      "anonymous": false,
      "inputs": [
        {
          "indexed": true,
          "internalType": "address",
          "name": "owner",
          "type": "address"
        },
        {
          "indexed": true,
          "internalType": "address",
          "name": "operator",
          "type": "address"
        },
        {
          "indexed": false,
          "internalType": "bool",
          "name": "approved",
          "type": "bool"
        }
      ],
      "name": "ApprovalForAll",
      "type": "event"
    },
    {
      "anonymous": false,
      "inputs": [
        {
          "indexed": true,
          "internalType": "address",
          "name": "previousOwner",
          "type": "address"
        },
        {
          "indexed": true,
          "internalType": "address",
          "name": "newOwner",
          "type": "address"
        }
      ],
      "name": "OwnershipTransferred",
      "type": "event"
    },
    {
      "anonymous": false,
      "inputs": [
        {
          "indexed": true,
          "internalType": "address",
          "name": "from",
          "type": "address"
        },
        {
          "indexed": true,
          "internalType": "address",
          "name": "to",
          "type": "address"
        },
        {
          "indexed": true,
          "internalType": "uint256",
          "name": "tokenId",
          "type": "uint256"
        }
      ],
      "name": "Transfer",
      "type": "event"
    },
    {
      "inputs": [],
      "name": "MAX_SUPPLY",
      "outputs": [
        {
          "internalType": "uint16",
          "name": "",
          "type": "uint16"
        }
      ],
      "stateMutability": "view",
      "type": "function",
      "constant": true
    },
    {
      "inputs": [
        {
          "internalType": "address",
          "name": "to",
          "type": "address"
        },
        {
          "internalType": "uint256",
          "name": "tokenId",
          "type": "uint256"
        }
      ],
      "name": "approve",
      "outputs": [],
      "stateMutability": "nonpayable",
      "type": "function"
    },
    {
      "inputs": [
        {
          "internalType": "address",
          "name": "owner",
          "type": "address"
        }
      ],
      "name": "balanceOf",
      "outputs": [
        {
          "internalType": "uint256",
          "name": "",
          "type": "uint256"
        }
      ],
      "stateMutability": "view",
      "type": "function",
      "constant": true
    },
    {
      "inputs": [
        {
          "internalType": "uint256",
          "name": "",
          "type": "uint256"
        }
      ],
      "name": "color",
      "outputs": [
        {
          "internalType": "bytes3",
          "name": "",
          "type": "bytes3"
        }
      ],
      "stateMutability": "view",
      "type": "function",
      "constant": true
    },
    {
      "inputs": [
        {
          "internalType": "uint256",
          "name": "",
          "type": "uint256"
        }
      ],
      "name": "gaTicketHolders",
      "outputs": [
        {
          "internalType": "bool",
          "name": "",
          "type": "bool"
        }
      ],
      "stateMutability": "view",
      "type": "function",
      "constant": true
    },
    {
      "inputs": [],
      "name": "gaTicketPrice",
      "outputs": [
        {
          "internalType": "uint256",
          "name": "",
          "type": "uint256"
        }
      ],
      "stateMutability": "view",
      "type": "function",
      "constant": true
    },
    {
      "inputs": [
        {
          "internalType": "uint256",
          "name": "tokenId",
          "type": "uint256"
        }
      ],
      "name": "getApproved",
      "outputs": [
        {
          "internalType": "address",
          "name": "",
          "type": "address"
        }
      ],
      "stateMutability": "view",
      "type": "function",
      "constant": true
    },
    {
      "inputs": [
        {
          "internalType": "address",
          "name": "owner",
          "type": "address"
        },
        {
          "internalType": "address",
          "name": "operator",
          "type": "address"
        }
      ],
      "name": "isApprovedForAll",
      "outputs": [
        {
          "internalType": "bool",
          "name": "",
          "type": "bool"
        }
      ],
      "stateMutability": "view",
      "type": "function",
      "constant": true
    },
    {
      "inputs": [],
      "name": "name",
      "outputs": [
        {
          "internalType": "string",
          "name": "",
          "type": "string"
        }
      ],
      "stateMutability": "view",
      "type": "function",
      "constant": true
    },
    {
      "inputs": [],
      "name": "owner",
      "outputs": [
        {
          "internalType": "address",
          "name": "",
          "type": "address"
        }
      ],
      "stateMutability": "view",
      "type": "function",
      "constant": true
    },
    {
      "inputs": [
        {
          "internalType": "uint256",
          "name": "tokenId",
          "type": "uint256"
        }
      ],
      "name": "ownerOf",
      "outputs": [
        {
          "internalType": "address",
          "name": "",
          "type": "address"
        }
      ],
      "stateMutability": "view",
      "type": "function",
      "constant": true
    },
    {
      "inputs": [],
      "name": "renounceOwnership",
      "outputs": [],
      "stateMutability": "nonpayable",
      "type": "function"
    },
    {
      "inputs": [
        {
          "internalType": "address",
          "name": "from",
          "type": "address"
        },
        {
          "internalType": "address",
          "name": "to",
          "type": "address"
        },
        {
          "internalType": "uint256",
          "name": "tokenId",
          "type": "uint256"
        }
      ],
      "name": "safeTransferFrom",
      "outputs": [],
      "stateMutability": "nonpayable",
      "type": "function"
    },
    {
      "inputs": [
        {
          "internalType": "address",
          "name": "from",
          "type": "address"
        },
        {
          "internalType": "address",
          "name": "to",
          "type": "address"
        },
        {
          "internalType": "uint256",
          "name": "tokenId",
          "type": "uint256"
        },
        {
          "internalType": "bytes",
          "name": "_data",
          "type": "bytes"
        }
      ],
      "name": "safeTransferFrom",
      "outputs": [],
      "stateMutability": "nonpayable",
      "type": "function"
    },
    {
      "inputs": [
        {
          "internalType": "address",
          "name": "operator",
          "type": "address"
        },
        {
          "internalType": "bool",
          "name": "approved",
          "type": "bool"
        }
      ],
      "name": "setApprovalForAll",
      "outputs": [],
      "stateMutability": "nonpayable",
      "type": "function"
    },
    {
      "inputs": [
        {
          "internalType": "bytes4",
          "name": "interfaceId",
          "type": "bytes4"
        }
      ],
      "name": "supportsInterface",
      "outputs": [
        {
          "internalType": "bool",
          "name": "",
          "type": "bool"
        }
      ],
      "stateMutability": "view",
      "type": "function",
      "constant": true
    },
    {
      "inputs": [],
      "name": "symbol",
      "outputs": [
        {
          "internalType": "string",
          "name": "",
          "type": "string"
        }
      ],
      "stateMutability": "view",
      "type": "function",
      "constant": true
    },
    {
      "inputs": [
        {
          "internalType": "address",
          "name": "from",
          "type": "address"
        },
        {
          "internalType": "address",
          "name": "to",
          "type": "address"
        },
        {
          "internalType": "uint256",
          "name": "tokenId",
          "type": "uint256"
        }
      ],
      "name": "transferFrom",
      "outputs": [],
      "stateMutability": "nonpayable",
      "type": "function"
    },
    {
      "inputs": [
        {
          "internalType": "address",
          "name": "newOwner",
          "type": "address"
        }
      ],
      "name": "transferOwnership",
      "outputs": [],
      "stateMutability": "nonpayable",
      "type": "function"
    },
    {
      "inputs": [
        {
          "internalType": "uint256",
          "name": "",
          "type": "uint256"
        }
      ],
      "name": "vipTicketHolders",
      "outputs": [
        {
          "internalType": "bool",
          "name": "",
          "type": "bool"
        }
      ],
      "stateMutability": "view",
      "type": "function",
      "constant": true
    },
    {
      "inputs": [],
      "name": "vipTicketPrice",
      "outputs": [
        {
          "internalType": "uint256",
          "name": "",
          "type": "uint256"
        }
      ],
      "stateMutability": "view",
      "type": "function",
      "constant": true
    },
    {
      "inputs": [],
      "name": "totalSupply",
      "outputs": [
        {
          "internalType": "uint256",
          "name": "",
          "type": "uint256"
        }
      ],
      "stateMutability": "view",
      "type": "function",
      "constant": true
    },
    {
      "inputs": [],
      "name": "mintItem",
      "outputs": [
        {
          "internalType": "uint256",
          "name": "",
          "type": "uint256"
        }
      ],
      "stateMutability": "payable",
      "type": "function",
      "payable": true
    },
    {
      "inputs": [
        {
          "internalType": "uint256",
          "name": "id",
          "type": "uint256"
        }
      ],
      "name": "tokenURI",
      "outputs": [
        {
          "internalType": "string",
          "name": "",
          "type": "string"
        }
      ],
      "stateMutability": "view",
      "type": "function",
      "constant": true
    }
  ],
  "bytecode": "0x60806040526008805463ffffffff19166323270000179055620000264262015180620001c1565b600c553480156200003657600080fd5b50604080518082018252600a8152692337bc31b7b71918191960b11b602080830191825283518085019094526005845264232c21991960d91b90840152815191929162000086916000916200011b565b5080516200009c9060019060208401906200011b565b505050620000b9620000b3620000c560201b60201c565b620000c9565b6103e760075562000223565b3390565b600680546001600160a01b038381166001600160a01b0319831681179093556040519116919082907f8be0079c531659141344cd1fd0a4f28419497f9722a3daafe3b4186f6b6457e090600090a35050565b8280546200012990620001e6565b90600052602060002090601f0160209004810192826200014d576000855562000198565b82601f106200016857805160ff191683800117855562000198565b8280016001018555821562000198579182015b82811115620001985782518255916020019190600101906200017b565b50620001a6929150620001aa565b5090565b5b80821115620001a65760008155600101620001ab565b60008219821115620001e157634e487b7160e01b81526011600452602481fd5b500190565b600181811c90821680620001fb57607f821691505b602082108114156200021d57634e487b7160e01b600052602260045260246000fd5b50919050565b614bfb80620002336000396000f3fe60806040526004361061018b5760003560e01c8063715018a6116100d6578063c87b56dd1161007f578063e985e9c511610059578063e985e9c5146104b7578063eb93406b14610500578063f2fde38b1461050857600080fd5b8063c87b56dd14610406578063cf71d4f514610426578063d4e28c9c1461045657600080fd5b806395d89b41116100b057806395d89b41146103b1578063a22cb465146103c6578063b88d4fde146103e657600080fd5b8063715018a61461034e5780638146581a146103635780638da5cb5b1461039357600080fd5b806326ff40de1161013857806344c485a31161011257806344c485a3146102f35780636352211e1461030e57806370a082311461032e57600080fd5b806326ff40de1461028457806332cb6b0c1461029f57806342842e0e146102d357600080fd5b8063095ea7b311610169578063095ea7b31461021f57806318160ddd1461024157806323b872dd1461026457600080fd5b806301ffc9a71461019057806306fdde03146101c5578063081812fc146101e7575b600080fd5b34801561019c57600080fd5b506101b06101ab366004612046565b610528565b60405190151581526020015b60405180910390f35b3480156101d157600080fd5b506101da6105c5565b6040516101bc91906149e9565b3480156101f357600080fd5b5061020761020236600461207e565b610657565b6040516001600160a01b0390911681526020016101bc565b34801561022b57600080fd5b5061023f61023a36600461201d565b6106f1565b005b34801561024d57600080fd5b5060085461ffff165b6040519081526020016101bc565b34801561027057600080fd5b5061023f61027f366004611ed3565b610823565b34801561029057600080fd5b50610256666a94d74f43000081565b3480156102ab57600080fd5b506008546102c09062010000900461ffff1681565b60405161ffff90911681526020016101bc565b3480156102df57600080fd5b5061023f6102ee366004611ed3565b6108aa565b3480156102ff57600080fd5b5061025666b1a2bc2ec5000081565b34801561031a57600080fd5b5061020761032936600461207e565b6108c5565b34801561033a57600080fd5b50610256610349366004611e80565b610950565b34801561035a57600080fd5b5061023f6109ea565b34801561036f57600080fd5b506101b061037e36600461207e565b600a6020526000908152604090205460ff1681565b34801561039f57600080fd5b506006546001600160a01b0316610207565b3480156103bd57600080fd5b506101da610a50565b3480156103d257600080fd5b5061023f6103e1366004611fe3565b610a5f565b3480156103f257600080fd5b5061023f610401366004611f0e565b610a6e565b34801561041257600080fd5b506101da61042136600461207e565b610afc565b34801561043257600080fd5b506101b061044136600461207e565b60096020526000908152604090205460ff1681565b34801561046257600080fd5b5061048661047136600461207e565b600b6020526000908152604090205460e81b81565b6040517fffffff000000000000000000000000000000000000000000000000000000000090911681526020016101bc565b3480156104c357600080fd5b506101b06104d2366004611ea1565b6001600160a01b03918216600090815260056020908152604080832093909416825291909152205460ff1690565b610256610cae565b34801561051457600080fd5b5061023f610523366004611e80565b610e8e565b60006001600160e01b031982167f80ac58cd00000000000000000000000000000000000000000000000000000000148061058b57506001600160e01b031982167f5b5e139f00000000000000000000000000000000000000000000000000000000145b806105bf57507f01ffc9a7000000000000000000000000000000000000000000000000000000006001600160e01b03198316145b92915050565b6060600080546105d490614aa1565b80601f016020809104026020016040519081016040528092919081815260200182805461060090614aa1565b801561064d5780601f106106225761010080835404028352916020019161064d565b820191906000526020600020905b81548152906001019060200180831161063057829003601f168201915b5050505050905090565b6000818152600260205260408120546001600160a01b03166106d55760405162461bcd60e51b815260206004820152602c60248201527f4552433732313a20617070726f76656420717565727920666f72206e6f6e657860448201526b34b9ba32b73a103a37b5b2b760a11b60648201526084015b60405180910390fd5b506000908152600460205260409020546001600160a01b031690565b60006106fc826108c5565b9050806001600160a01b0316836001600160a01b031614156107865760405162461bcd60e51b815260206004820152602160248201527f4552433732313a20617070726f76616c20746f2063757272656e74206f776e6560448201527f720000000000000000000000000000000000000000000000000000000000000060648201526084016106cc565b336001600160a01b03821614806107a257506107a281336104d2565b6108145760405162461bcd60e51b815260206004820152603860248201527f4552433732313a20617070726f76652063616c6c6572206973206e6f74206f7760448201527f6e6572206e6f7220617070726f76656420666f7220616c6c000000000000000060648201526084016106cc565b61081e8383610f70565b505050565b61082d3382610feb565b61089f5760405162461bcd60e51b815260206004820152603160248201527f4552433732313a207472616e736665722063616c6c6572206973206e6f74206f60448201527f776e6572206e6f7220617070726f76656400000000000000000000000000000060648201526084016106cc565b61081e8383836110e2565b61081e83838360405180602001604052806000815250610a6e565b6000818152600260205260408120546001600160a01b0316806105bf5760405162461bcd60e51b815260206004820152602960248201527f4552433732313a206f776e657220717565727920666f72206e6f6e657869737460448201527f656e7420746f6b656e000000000000000000000000000000000000000000000060648201526084016106cc565b60006001600160a01b0382166109ce5760405162461bcd60e51b815260206004820152602a60248201527f4552433732313a2062616c616e636520717565727920666f7220746865207a6560448201527f726f20616464726573730000000000000000000000000000000000000000000060648201526084016106cc565b506001600160a01b031660009081526003602052604090205490565b6006546001600160a01b03163314610a445760405162461bcd60e51b815260206004820181905260248201527f4f776e61626c653a2063616c6c6572206973206e6f7420746865206f776e657260448201526064016106cc565b610a4e60006112bc565b565b6060600180546105d490614aa1565b610a6a33838361131b565b5050565b610a783383610feb565b610aea5760405162461bcd60e51b815260206004820152603160248201527f4552433732313a207472616e736665722063616c6c6572206973206e6f74206f60448201527f776e6572206e6f7220617070726f76656400000000000000000000000000000060648201526084016106cc565b610af6848484846113ea565b50505050565b6000818152600260205260409020546060906001600160a01b0316610b635760405162461bcd60e51b815260206004820152600960248201527f6e6f74206578697374000000000000000000000000000000000000000000000060448201526064016106cc565b6000610b6e83611468565b604051602001610b7e9190614972565b60408051808303601f190181528282527f5468697320697320616e204e465420666f6f6c21000000000000000000000000602084015281516014818503018152603490930190915291506000610bdb610bd686611582565b6115bd565b6040805180820182526002815261474160f01b6020808301919091526000898152600a90915291909120549192509060ff1615610c2e575060408051808201909152600381526205649560ec1b60208201525b610c848484610c3c89611468565b84610c5a6014610c4b8d6108c5565b6001600160a01b031690611768565b87604051602001610c7096959493929190612da3565b6040516020818303038152906040526115bd565b604051602001610c94919061492d565b604051602081830303815290604052945050505050919050565b60085460009061ffff6201000082048116911610610d345760405162461bcd60e51b815260206004820152602b60248201527f507572636861736520776f756c6420657863656564206d617820737570706c7960448201527f206f66205469636b65747300000000000000000000000000000000000000000060648201526084016106cc565b600c544210610d855760405162461bcd60e51b815260206004820152600c60248201527f444f4e45204d494e54494e47000000000000000000000000000000000000000060448201526064016106cc565b3466b1a2bc2ec500001480610da0575034666a94d74f430000145b610dec5760405162461bcd60e51b815260206004820152601e60248201527f45746865722076616c75652073656e74206973206e6f7420636f72656374000060448201526064016106cc565b610dfa600780546001019055565b6000610e0560075490565b9050610e11338261192c565b66b1a2bc2ec50000341415610e3e576000818152600a60205260409020805460ff19166001179055610e58565b6000818152600960205260409020805460ff191660011790555b6008805461ffff16906000610e6c83614adc565b91906101000a81548161ffff021916908361ffff160217905550508091505090565b6006546001600160a01b03163314610ee85760405162461bcd60e51b815260206004820181905260248201527f4f776e61626c653a2063616c6c6572206973206e6f7420746865206f776e657260448201526064016106cc565b6001600160a01b038116610f645760405162461bcd60e51b815260206004820152602660248201527f4f776e61626c653a206e6577206f776e657220697320746865207a65726f206160448201527f646472657373000000000000000000000000000000000000000000000000000060648201526084016106cc565b610f6d816112bc565b50565b6000818152600460205260409020805473ffffffffffffffffffffffffffffffffffffffff19166001600160a01b0384169081179091558190610fb2826108c5565b6001600160a01b03167f8c5be1e5ebec7d5bd14f71427d1e84f3dd0314c0f7b2291e5b200ac8c7c3b92560405160405180910390a45050565b6000818152600260205260408120546001600160a01b03166110645760405162461bcd60e51b815260206004820152602c60248201527f4552433732313a206f70657261746f7220717565727920666f72206e6f6e657860448201526b34b9ba32b73a103a37b5b2b760a11b60648201526084016106cc565b600061106f836108c5565b9050806001600160a01b0316846001600160a01b031614806110aa5750836001600160a01b031661109f84610657565b6001600160a01b0316145b806110da57506001600160a01b0380821660009081526005602090815260408083209388168352929052205460ff165b949350505050565b826001600160a01b03166110f5826108c5565b6001600160a01b0316146111715760405162461bcd60e51b815260206004820152602560248201527f4552433732313a207472616e736665722066726f6d20696e636f72726563742060448201527f6f776e657200000000000000000000000000000000000000000000000000000060648201526084016106cc565b6001600160a01b0382166111ec5760405162461bcd60e51b8152602060048201526024808201527f4552433732313a207472616e7366657220746f20746865207a65726f2061646460448201527f726573730000000000000000000000000000000000000000000000000000000060648201526084016106cc565b6111f7600082610f70565b6001600160a01b0383166000908152600360205260408120805460019290611220908490614a47565b90915550506001600160a01b038216600090815260036020526040812080546001929061124e9084906149fc565b9091555050600081815260026020526040808220805473ffffffffffffffffffffffffffffffffffffffff19166001600160a01b0386811691821790925591518493918716917fddf252ad1be2c89b69c2b068fc378daa952ba7f163c4a11628f55a4df523b3ef91a4505050565b600680546001600160a01b0383811673ffffffffffffffffffffffffffffffffffffffff19831681179093556040519116919082907f8be0079c531659141344cd1fd0a4f28419497f9722a3daafe3b4186f6b6457e090600090a35050565b816001600160a01b0316836001600160a01b0316141561137d5760405162461bcd60e51b815260206004820152601960248201527f4552433732313a20617070726f766520746f2063616c6c65720000000000000060448201526064016106cc565b6001600160a01b03838116600081815260056020908152604080832094871680845294825291829020805460ff191686151590811790915591519182527f17307eab39ab6107e8899845ad3d59bd9653f200f220920489ca2b5937696c31910160405180910390a3505050565b6113f58484846110e2565b61140184848484611946565b610af65760405162461bcd60e51b815260206004820152603260248201527f4552433732313a207472616e7366657220746f206e6f6e20455243373231526560448201527131b2b4bb32b91034b6b83632b6b2b73a32b960711b60648201526084016106cc565b60608161148c5750506040805180820190915260018152600360fc1b602082015290565b8160005b81156114b657806114a081614afe565b91506114af9050600a83614a14565b9150611490565b60008167ffffffffffffffff8111156114df57634e487b7160e01b600052604160045260246000fd5b6040519080825280601f01601f191660200182016040528015611509576020820181803683370190505b5090505b84156110da5761151e600183614a47565b915061152b600a86614b19565b6115369060306149fc565b60f81b81838151811061155957634e487b7160e01b600052603260045260246000fd5b60200101906001600160f81b031916908160001a90535061157b600a86614a14565b945061150d565b606061158d82611a9e565b61159683611bc1565b6040516020016115a7929190612fef565b6040516020818303038152906040529050919050565b60608151600014156115dd57505060408051602081019091526000815290565b6000604051806060016040528060408152602001614b86604091399050600060038451600261160c91906149fc565b6116169190614a14565b611621906004614a28565b905060006116308260206149fc565b67ffffffffffffffff81111561165657634e487b7160e01b600052604160045260246000fd5b6040519080825280601f01601f191660200182016040528015611680576020820181803683370190505b509050818152600183018586518101602084015b818310156116ec576003830192508251603f8160121c168501518253600182019150603f81600c1c168501518253600182019150603f8160061c168501518253600182019150603f8116850151825350600101611694565b60038951066001811461170657600281146117325761175a565b7f3d3d00000000000000000000000000000000000000000000000000000000000060011983015261175a565b7f3d000000000000000000000000000000000000000000000000000000000000006000198301525b509398975050505050505050565b60606000611777836002614a28565b6117829060026149fc565b67ffffffffffffffff8111156117a857634e487b7160e01b600052604160045260246000fd5b6040519080825280601f01601f1916602001820160405280156117d2576020820181803683370190505b509050600360fc1b816000815181106117fb57634e487b7160e01b600052603260045260246000fd5b60200101906001600160f81b031916908160001a9053507f78000000000000000000000000000000000000000000000000000000000000008160018151811061185457634e487b7160e01b600052603260045260246000fd5b60200101906001600160f81b031916908160001a9053506000611878846002614a28565b6118839060016149fc565b90505b6001811115611924577f303132333435363738396162636465660000000000000000000000000000000085600f16601081106118d257634e487b7160e01b600052603260045260246000fd5b1a60f81b8282815181106118f657634e487b7160e01b600052603260045260246000fd5b60200101906001600160f81b031916908160001a90535060049490941c9361191d81614a8a565b9050611886565b509392505050565b610a6a828260405180602001604052806000815250611c97565b60006001600160a01b0384163b15611a9357604051630a85bd0160e11b81526001600160a01b0385169063150b7a029061198a9033908990889088906004016149b7565b602060405180830381600087803b1580156119a457600080fd5b505af19250505080156119d4575060408051601f3d908101601f191682019092526119d191810190612062565b60015b611a79573d808015611a02576040519150601f19603f3d011682016040523d82523d6000602084013e611a07565b606091505b508051611a715760405162461bcd60e51b815260206004820152603260248201527f4552433732313a207472616e7366657220746f206e6f6e20455243373231526560448201527131b2b4bb32b91034b6b83632b6b2b73a32b960711b60648201526084016106cc565b805181602001fd5b6001600160e01b031916630a85bd0160e11b1490506110da565b506001949350505050565b6000818152600a60205260408120546060919060ff16611add57604051806040016040528060078152602001662335333237373560c81b815250611afe565b604051806040016040528060078152602001662333433343334360c81b8152505b6000848152600a60205260408120549192509060ff16611b53576040518060400160405280601181526020017f47656e6572616c2041646d697373696f6e000000000000000000000000000000815250611b8a565b6040518060400160405280600981526020017f20202020202056495000000000000000000000000000000000000000000000008152505b905081611b9685611468565b82604051602001611ba9939291906120de565b60405160208183030381529060405292505050919050565b6000818152600a60205260408120546060919060ff16611c0057604051806040016040528060078152602001662335333237373560c81b815250611c21565b604051806040016040528060078152602001662333433343334360c81b8152505b6000848152600a60205260408120549192509060ff16611c5b5760405180604001604052806002815260200161474160f01b815250611c78565b6040518060400160405280600381526020016205649560ec1b8152505b905081611c8485611468565b82604051602001611ba9939291906130e6565b611ca18383611d15565b611cae6000848484611946565b61081e5760405162461bcd60e51b815260206004820152603260248201527f4552433732313a207472616e7366657220746f206e6f6e20455243373231526560448201527131b2b4bb32b91034b6b83632b6b2b73a32b960711b60648201526084016106cc565b6001600160a01b038216611d6b5760405162461bcd60e51b815260206004820181905260248201527f4552433732313a206d696e7420746f20746865207a65726f206164647265737360448201526064016106cc565b6000818152600260205260409020546001600160a01b031615611dd05760405162461bcd60e51b815260206004820152601c60248201527f4552433732313a20746f6b656e20616c7265616479206d696e7465640000000060448201526064016106cc565b6001600160a01b0382166000908152600360205260408120805460019290611df99084906149fc565b9091555050600081815260026020526040808220805473ffffffffffffffffffffffffffffffffffffffff19166001600160a01b03861690811790915590518392907fddf252ad1be2c89b69c2b068fc378daa952ba7f163c4a11628f55a4df523b3ef908290a45050565b80356001600160a01b0381168114611e7b57600080fd5b919050565b600060208284031215611e91578081fd5b611e9a82611e64565b9392505050565b60008060408385031215611eb3578081fd5b611ebc83611e64565b9150611eca60208401611e64565b90509250929050565b600080600060608486031215611ee7578081fd5b611ef084611e64565b9250611efe60208501611e64565b9150604084013590509250925092565b60008060008060808587031215611f23578081fd5b611f2c85611e64565b9350611f3a60208601611e64565b925060408501359150606085013567ffffffffffffffff80821115611f5d578283fd5b818701915087601f830112611f70578283fd5b813581811115611f8257611f82614b59565b604051601f8201601f19908116603f01168101908382118183101715611faa57611faa614b59565b816040528281528a6020848701011115611fc2578586fd5b82602086016020830137918201602001949094529598949750929550505050565b60008060408385031215611ff5578182fd5b611ffe83611e64565b915060208301358015158114612012578182fd5b809150509250929050565b6000806040838503121561202f578182fd5b61203883611e64565b946020939093013593505050565b600060208284031215612057578081fd5b8135611e9a81614b6f565b600060208284031215612073578081fd5b8151611e9a81614b6f565b60006020828403121561208f578081fd5b5035919050565b600081518084526120ae816020860160208601614a5e565b601f01601f19169290920160200192915050565b600081516120d4818560208601614a5e565b9290920192915050565b7f3c672069643d22737475623122207472616e73666f726d3d226d61747269782881527f312e31333537342c302c302c312c2d33322e373336352c302e3230343138322960208201527f223e3c70617468207374796c653d2266696c6c3a000000000000000000000000604082015260008451612162816054850160208901614a5e565b7f2220643d224d3236362e30342c3139392e3739364c3237342e3832362c3139396054918401918201527f2e373936433237342e3832362c3231302e383334203238322e372c3231392e3760748201527f3936203239322e3339382c3231392e3739364c3239322e3936382c3231392e3760948201527f36334c3239322e3936382c3238342e343238433239322e3936382c3239322e3960b48201527f31203238362e3931382c3239392e373936203237392e3436362c3239392e373960d48201527f364c34322e3332362c3239392e3739364333342e3837342c3239392e3739362060f48201527f32382e3832342c3239322e39312032382e3832342c3238342e3432384c32382e6101148201527f3832342c3231392e3739364333382e3532322c3231392e3739362034362e33396101348201527f352c3231302e3833342034362e3339352c3139392e3739364c35352e3138312c6101548201527f3139392e3739364c35352e3138312c3230302e3739364c35392e3538332c32306101748201527f302e3739364c35392e3538332c3139392e3739364c36332e3130352c3139392e6101948201527f3739364c36332e3130352c3230302e3739364c36372e3530372c3230302e37396101b48201527f364c36372e3530372c3139392e3739364c37312e3032392c3139392e3739364c6101d48201527f37312e3032392c3230302e3739364c37352e3433312c3230302e3739364c37356101f48201527f2e3433312c3139392e3739364c37382e3935322c3139392e3739364c37382e396102148201527f35322c3230302e3739364c38332e3335342c3230302e3739364c38332e3335346102348201527f2c3139392e3739364c38362e3837362c3139392e3739364c38362e3837362c326102548201527f30302e3739364c39312e3237382c3230302e3739364c39312e3237382c3139396102748201527f2e3739364c39342e382c3139392e3739364c39342e382c3230302e3739364c396102948201527f392e3230322c3230302e3739364c39392e3230322c3139392e3739364c3130326102b48201527f2e3732342c3139392e3739364c3130322e3732342c3230302e3739364c3130376102d48201527f2e3132362c3230302e3739364c3130372e3132362c3139392e3739364c3131306102f48201527f2e3634372c3139392e3739364c3131302e3634372c3230302e3739364c3131356103148201527f2e3034392c3230302e3739364c3131352e3034392c3139392e3739364c3131386103348201527f2e3537312c3139392e3739364c3131382e3537312c3230302e3739364c3132326103548201527f2e3937332c3230302e3739364c3132322e3937332c3139392e3739364c3132366103748201527f2e3439352c3139392e3739364c3132362e3439352c3230302e3739364c3133306103948201527f2e3839372c3230302e3739364c3133302e3839372c3139392e3739364c3133346103b48201527f2e3431382c3139392e3739364c3133342e3431382c3230302e3739364c3133386103d48201527f2e3832312c3230302e3739364c3133382e3832312c3139392e3739364c3134326103f48201527f2e3334322c3139392e3739364c3134322e3334322c3230302e3739364c3134366104148201527f2e3734342c3230302e3739364c3134362e3734342c3139392e3739364c3135306104348201527f2e3236362c3139392e3739364c3135302e3236362c3230302e3739364c3135346104548201527f2e3636382c3230302e3739364c3135342e3636382c3139392e3739364c3135386104748201527f2e31392c3139392e3739364c3135382e31392c3230302e3739364c3136322e356104948201527f39322c3230302e3739364c3136322e3539322c3139392e3739364c3136362e316104b48201527f31332c3139392e3739364c3136362e3131332c3230302e3739364c3137302e356104d48201527f31352c3230302e3739364c3137302e3531352c3139392e3739364c3137342e306104f48201527f33372c3139392e3739364c3137342e3033372c3230302e3739364c3137382e346105148201527f33392c3230302e3739364c3137382e3433392c3139392e3739364c3138312e396105348201527f36312c3139392e3739364c3138312e3936312c3230302e3739364c3138362e336105548201527f36332c3230302e3739364c3138362e3336332c3139392e3739364c3138392e386105748201527f38352c3139392e3739364c3138392e3838352c3230302e3739364c3139342e326105948201527f38372c3230302e3739364c3139342e3238372c3139392e3739364c3139372e386105b48201527f30382c3139392e3739364c3139372e3830382c3230302e3739364c3230322e326105d48201527f312c3230302e3739364c3230322e32312c3139392e3739364c3230352e3733326105f48201527f2c3139392e3739364c3230352e3733322c3230302e3739364c3231302e3133346106148201527f2c3230302e3739364c3231302e3133342c3139392e3739364c3231342e3039366106348201527f2c3139392e3739364c3231342e3039362c3230302e3739364c3231382e3439386106548201527f2c3230302e3739364c3231382e3439382c3139392e3739364c3232322e30322c6106748201527f3139392e3739364c3232322e30322c3230302e3739364c3232362e3432322c326106948201527f30302e3739364c3232362e3432322c3139392e3739364c3232392e3934332c316106b48201527f39392e3739364c3232392e3934332c3230302e3739364c3233342e3334352c326106d48201527f30302e3739364c3233342e3334352c3139392e3739364c3233372e3836372c316106f48201527f39392e3739364c3233372e3836372c3230302e3739364c3234322e3236392c326107148201527f30302e3739364c3234322e3236392c3139392e3739364c3234352e3739312c316107348201527f39392e3739364c3234352e3739312c3230302e3739364c3235302e3139332c326107548201527f30302e3739364c3235302e3139332c3139392e3739364c3235332e3731342c316107748201527f39392e3739364c3235332e3731342c3230302e3739364c3235382e3131372c326107948201527f30302e3739364c3235382e3131372c3139392e3739364c3236312e3633382c316107b48201527f39392e3739364c3236312e3633382c3230302e3739364c3236362e30342c32306107d48201527f302e3739364c3236362e30342c3139392e3739365a22202f3e3c2f673e0000006107f4820152612d99612d70612d6a612c83612c5a612c31612c2b612c02612b676108118a017f3c672069643d22737475623222207472616e73666f726d3d226d61747269782881527f302e3438393630312c302c302c302e3438393630312c33362e333631362c333460208201527f2e3536313329223e000000000000000000000000000000000000000000000000604082015260480190565b7f3c7465787420783d22373870782220793d22343535707822207374796c653d2281527f666f6e742d66616d696c793a42616c6f6f4461322d4578747261426f6c643b6660208201527f6f6e742d7765696768743a3830303b666f6e742d73697a653a31303870783b6660408201527f696c6c3a234646463b223e0000000000000000000000000000000000000000006060820152606b0190565b7f2300000000000000000000000000000000000000000000000000000000000000815260010190565b8b6120c2565b7f3c2f746578743e00000000000000000000000000000000000000000000000000815260070190565b7f3c2f673e00000000000000000000000000000000000000000000000000000000815260040190565b7f3c672069643d22737475623322207472616e73666f726d3d226d61747269782881527f302e3136303636372c302c302c302e3136303636372c36362e313531312c323160208201527f322e39313129223e3c7465787420783d22363270782220793d2234313070782260408201527f207374796c653d22666f6e742d66616d696c793a42616c6f6f4461322d45787460608201527f7261426f6c643b666f6e742d7765696768743a3830303b666f6e742d73697a6560808201527f3a31303870783b66696c6c3a234646393230303b223e0000000000000000000060a082015260b60190565b866120c2565b7f3c2f746578743e3c2f673e0000000000000000000000000000000000000000008152600b0190565b9695505050505050565b7f7b226e616d65223a220000000000000000000000000000000000000000000000815260008751612ddb816009850160208c01614a5e565b7f222c226465736372697074696f6e223a220000000000000000000000000000006009918401918201528751612e1881601a840160208c01614a5e565b7f2200000000000000000000000000000000000000000000000000000000000000601a92909101918201527f2265787465726e616c5f75726c223a2268747470733a2f2f6d6574616d61736b601b8201527f2e696f2f666f78636f6e32303232000000000000000000000000000000000000603b8201528651612ea2816049840160208b01614a5e565b612fe1612fb8612fb2612f63612f55612c2b612f2c612f03612efd612ed460498b8d010161088b60f21b815260020190565b7f2261747472696275746573223a205b7b227469636b65745f74797065223a2022815260200190565b8f6120c2565b7f227d5d2c00000000000000000000000000000000000000000000000000000000815260040190565b7f226f776e6572223a220000000000000000000000000000000000000000000000815260090190565b61088b60f21b815260020190565b7f22696d616765223a22646174613a696d6167652f7376672b786d6c3b6261736581527f36342c0000000000000000000000000000000000000000000000000000000000602082015260230190565b876120c2565b7f227d000000000000000000000000000000000000000000000000000000000000815260020190565b9a9950505050505050505050565b7f3c7376672077696474683d2234303022206865696768743d223430302220786d81527f6c6e733d22687474703a2f2f7777772e77332e6f72672f323030302f7376672260208201527f207374796c653d2266696c6c2d72756c653a6576656e6f64643b636c69702d7260408201527f756c653a6576656e6f64643b757365722d73656c6563743a206e6f6e653b223e606082015260008351613099816080850160208801614a5e565b8351908301906130b0816080840160208801614a5e565b7f3c2f7376673e000000000000000000000000000000000000000000000000000060809290910191820152608601949350505050565b7f3c672069643d22746f7022207472616e73666f726d3d226d617472697828302e81527f39393738342c302c302c312c322e3837373637652d31382c3029223e3c70617460208201527f68207374796c653d2266696c6c3a00000000000000000000000000000000000060408201526000845161316a81604e850160208901614a5e565b7f2220643d224d33302c3230304c32302c3230304332302c3138382e3936322031604e918401918201527f312e3033382c31383020302c3138304c302c31352e33363843302c362e383836606e8201527f20362e3838362c302031352e3336382c304c3238352e3238312c30433239332e608e8201527f3736332c30203330302e3634392c362e383836203330302e3634392c31352e3360ae8201527f36384c3330302e3634392c3138302e3033334c3330302c313830433238382e3960ce8201527f36322c313830203238302c3138382e393632203238302c3230304c3237302c3260ee8201527f30304c3237302c3139394c3236342e39392c3139394c3236342e39392c32303061010e8201527f4c3236302e3938312c3230304c3236302e3938312c3139394c3235352e39373161012e8201527f2c3139394c3235352e3937312c3230304c3235312e3936322c3230304c32353161014e8201527f2e3936322c3139394c3234362e3935322c3139394c3234362e3935322c32303061016e8201527f4c3234322e3934342c3230304c3234322e3934342c3139394c3233372e39333361018e8201527f2c3139394c3233372e3933332c3230304c3233332e3932352c3230304c3233336101ae8201527f2e3932352c3139394c3232382e3931342c3139394c3232382e3931342c3230306101ce8201527f4c3232342e3930362c3230304c3232342e3930362c3139394c3231392e3839366101ee8201527f2c3139394c3231392e3839362c3230304c3231352e3838372c3230304c32313561020e8201527f2e3838372c3139394c3231302e3837372c3139394c3231302e3837372c32303061022e8201527f4c3230362e3336372c3230304c3230362e3336372c3139394c3230312e33353761024e8201527f2c3139394c3230312e3335372c3230304c3139372e3334392c3230304c31393761026e8201527f2e3334392c3139394c3139322e3333382c3139394c3139322e3333382c32303061028e8201527f4c3138382e33332c3230304c3138382e33332c3139394c3138332e3331392c316102ae8201527f39394c3138332e3331392c3230304c3137392e3331312c3230304c3137392e336102ce8201527f31312c3139394c3137342e3330312c3139394c3137342e3330312c3230304c316102ee8201527f37302e3239322c3230304c3137302e3239322c3139394c3136352e3238322c3161030e8201527f39394c3136352e3238322c3230304c3136312e3237332c3230304c3136312e3261032e8201527f37332c3139394c3135362e3236332c3139394c3135362e3236332c3230304c3161034e8201527f35322e3235352c3230304c3135322e3235352c3139394c3134372e3234342c3161036e8201527f39394c3134372e3234342c3230304c3134332e3233362c3230304c3134332e3261038e8201527f33362c3139394c3133382e3232352c3139394c3133382e3232352c3230304c316103ae8201527f33342e3231372c3230304c3133342e3231372c3139394c3132392e3230372c316103ce8201527f39394c3132392e3230372c3230304c3132352e3139382c3230304c3132352e316103ee8201527f39382c3139394c3132302e3138382c3139394c3132302e3138382c3230304c3161040e8201527f31362e31382c3230304c3131362e31382c3139394c3131312e3136392c31393961042e8201527f4c3131312e3136392c3230304c3130372e3136312c3230304c3130372e31363161044e8201527f2c3139394c3130322e31352c3139394c3130322e31352c3230304c39382e313461046e8201527f322c3230304c39382e3134322c3139394c39332e3133322c3139394c39332e3161048e8201527f33322c3230304c38392e3132332c3230304c38392e3132332c3139394c38342e6104ae8201527f3131332c3139394c38342e3131332c3230304c38302e3130342c3230304c38306104ce8201527f2e3130342c3139394c37352e3039342c3139394c37352e3039342c3230304c376104ee8201527f312e3038362c3230304c37312e3038362c3139394c36362e3037352c3139394c61050e8201527f36362e3037352c3230304c36322e3036372c3230304c36322e3036372c31393961052e8201527f4c35372e3035362c3139394c35372e3035362c3230304c35332e3034382c323061054e8201527f304c35332e3034382c3139394c34382e3033382c3139394c34382e3033382c3261056e8201527f30304c34342e3032392c3230304c34342e3032392c3139394c33392e3031392c61058e8201527f3139394c33392e3031392c3230304c33352e30312c3230304c33352e30312c316105ae8201527f39394c33302c3139394c33302c3230305a22202f3e3c2f673e000000000000006105ce820152612d99613a89612d70612fb26139a2612c5a612c3161399c612c026138db6105e78b017f3c672069643d227469636b65744e756d62657222207472616e73666f726d3d2281527f6d617472697828302e3735393435392c302c302c302e3735393435392c2d393760208201527f2e313432382c2d312e383436303929223e000000000000000000000000000000604082015260510190565b7f3c7465787420783d2233393270782220793d2232303870782220746578742d6181527f6c69676e3d22656e6422207374796c653d22666f6e742d66616d696c793a426160208201527f6c6f6f4461322d4578747261426f6c643b666f6e742d7765696768743a38303060408201527f3b666f6e742d73697a653a33352e33363870783b66696c6c3a7267622832353560608201527f2c3134362c30293b223e000000000000000000000000000000000000000000006080820152608a0190565b8c6120c2565b7f3c672069643d22646174655465787422207472616e73666f726d3d226d61747281527f697828302e3935353631352c302c302c302e3839313430342c2d302e3839303360208201527f37382c2d35382e3336363829223e3c7465787420783d22323470782220793d2260408201527f323430707822207374796c653d22666f6e742d66616d696c793a42616c6f6f4460608201527f61322d526567756c61723b666f6e742d73697a653a333070783b66696c6c3a2360808201527f4646463b223e313020444543202f20000000000000000000000000000000000060a082015260af0190565b7f3c672069643d226576656e7422207472616e73666f726d3d226d61747269782881527f312e30363330352c302c302c312e30363330352c2d3133302e3633362c2d363360208201527f2e3830383229223e3c706174682069643d225f3031462220643d224d3134322e60408201527f3531382c38372e3334324c3137332e3838312c38372e3334324c3137332e383860608201527f312c39382e3131394c3135342e3337332c39382e3131394c3135342e3337332c60808201527f3131392e3133364c3136392e3637382c3131392e3133364c3136392e3637382c60a08201527f3132392e3931344c3135342e3337332c3132392e3931344c3135342e3337332c60c08201527f3136322e3738364c3134322e3531382c3136322e3738364c3134322e3531382c60e08201527f38372e3334325a22207374796c653d2266696c6c3a726762283235352c3134366101008201527f2c30293b66696c6c2d72756c653a6e6f6e7a65726f3b222f3e3c7061746820696101208201527f643d225f30324f2220643d224d3139362e37332c3136332e383634433139302e6101408201527f39312c3136332e383634203138362e3435352c3136322e323132203138332e336101608201527f36362c3135382e393036433138302e3237362c3135352e363031203137382e376101808201527f33312c3135302e393331203137382e3733312c3134342e3839354c3137382e376101a08201527f33312c3130352e323333433137382e3733312c39392e313937203138302e32376101c08201527f362c39342e353237203138332e3336362c39312e323232433138362e3435352c6101e08201527f38372e393136203139302e39312c38362e323634203139362e37332c38362e326102008201527f3634433230322e35352c38362e323634203230372e3030352c38372e393136206102208201527f3231302e3039352c39312e323232433231332e3138342c39342e3532372032316102408201527f342e3732392c39392e313937203231342e3732392c3130352e3233334c3231346102608201527f2e3732392c3134342e383935433231342e3732392c3135302e393331203231336102808201527f2e3138342c3135352e363031203231302e3039352c3135382e393036433230376102a08201527f2e3030352c3136322e323132203230322e35352c3136332e383634203139362e6102c08201527f37332c3136332e3836345a4d3139362e37332c3135332e303836433230302e386102e08201527f32362c3135332e303836203230322e3837332c3135302e363037203230322e386103008201527f37332c3134352e36354c3230322e3837332c3130342e343738433230322e38376103208201527f332c39392e353231203230302e3832362c39372e303432203139362e37332c396103408201527f372e303432433139322e3633342c39372e303432203139302e3538372c39392e6103608201527f353231203139302e3538372c3130342e3437384c3139302e3538372c3134352e6103808201527f3635433139302e3538372c3135302e363037203139322e3633342c3135332e306103a08201527f3836203139362e37332c3135332e3038365a22207374796c653d2266696c6c3a6103c08201527f726762283235352c3134362c30293b66696c6c2d72756c653a6e6f6e7a65726f6103e08201527f3b222f3e3c706174682069643d225f3033582220643d224d3233312e3433352c6104008201527f3132342e3230324c3231382e3339332c38372e3334324c3233302e3839362c386104208201527f372e3334324c3233382e3837312c3131312e374c3233392e3038372c3131312e6104408201527f374c3234372e3237382c38372e3334324c3235382e3438372c38372e3334324c6104608201527f3234352e3434362c3132342e3230324c3235392e3133342c3136322e3738364c6104808201527f3234362e3633312c3136322e3738364c3233382e3030392c3133362e3438394c6104a08201527f3233372e3739342c3133362e3438394c3232382e3935362c3136322e3738364c6104c08201527f3231372e3734372c3136322e3738364c3233312e3433352c3132342e3230325a6104e08201527f22207374796c653d2266696c6c3a726762283235352c3134362c30293b66696c61050082018190527f6c2d72756c653a6e6f6e7a65726f3b222f3e3c706174682069643d225f3034436105208301527f2220643d224d3237392e3731392c3136332e383634433237342e3034332c31366105408301527f332e383634203236392e3731342c3136322e323438203236362e3733322c31356105608301527f392e303134433236332e37352c3135352e373831203236322e3235392c3135316105808301527f2e323138203236322e3235392c3134352e3332364c3236322e3235392c3130346105a08301527f2e383032433236322e3235392c39382e3931203236332e37352c39342e3334376105c08301527f203236362e3733322c39312e313134433236392e3731342c38372e38382032376105e08301527f342e3034332c38362e323634203237392e3731392c38362e323634433238352e6106008301527f3339362c38362e323634203238392e3732352c38372e3838203239322e3730376106208301527f2c39312e313134433239352e3638392c39342e333437203239372e3137392c396106408301527f382e3931203239372e3137392c3130342e3830324c3239372e3137392c3131326106608301527f2e3737374c3238352e3937312c3131322e3737374c3238352e3937312c3130346106808301527f2e303437433238352e3937312c39392e333737203238332e3939352c39372e306106a08301527f3432203238302e3034332c39372e303432433237362e3039312c39372e3034326106c08301527f203237342e3131352c39392e333737203237342e3131352c3130342e3034374c6106e08301527f3237342e3131352c3134362e313839433237342e3131352c3135302e373837206107008301527f3237362e3039312c3135332e303836203238302e3034332c3135332e303836436107208301527f3238332e3939352c3135332e303836203238352e3937312c3135302e373837206107408301527f3238352e3937312c3134362e3138394c3238352e3937312c3133342e3635364c6107608301527f3239372e3137392c3133342e3635364c3239372e3137392c3134352e333236436107808301527f3239372e3137392c3135312e323138203239352e3638392c3135352e373831206107a08301527f3239322e3730372c3135392e303134433238392e3732352c3136322e323438206107c08301527f3238352e3339362c3136332e383634203237392e3731392c3136332e3836345a6107e08301526108008201527f6c2d72756c653a6e6f6e7a65726f3b222f3e3c706174682069643d225f30354f6108208201527f2220643d224d3332312e3634352c3136332e383634433331352e3832352c31366108408201527f332e383634203331312e33372c3136322e323132203330382e3238312c3135386108608201527f2e393036433330352e3139312c3135352e363031203330332e3634362c3135306108808201527f2e393331203330332e3634362c3134342e3839354c3330332e3634362c3130356108a08201527f2e323333433330332e3634362c39392e313937203330352e3139312c39342e356108c08201527f3237203330382e3238312c39312e323232433331312e33372c38372e393136206108e08201527f3331352e3832352c38362e323634203332312e3634352c38362e3236344333326109008201527f372e3436352c38362e323634203333312e39322c38372e393136203333352e306109208201527f312c39312e323232433333382e3039392c39342e353237203333392e3634342c6109408201527f39392e313937203333392e3634342c3130352e3233334c3333392e3634342c316109608201527f34342e383935433333392e3634342c3135302e393331203333382e3039392c316109808201527f35352e363031203333352e30312c3135382e393036433333312e39322c3136326109a08201527f2e323132203332372e3436352c3136332e383634203332312e3634352c3136336109c08201527f2e3836345a4d3332312e3634352c3135332e303836433332352e3734312c31356109e08201527f332e303836203332372e3738392c3135302e363037203332372e3738392c3134610a008201527f352e36354c3332372e3738392c3130342e343738433332372e3738392c39392e610a208201527f353231203332352e3734312c39372e303432203332312e3634352c39372e3034610a408201527f32433331372e35352c39372e303432203331352e3530322c39392e3532312033610a608201527f31352e3530322c3130342e3437384c3331352e3530322c3134352e3635433331610a808201527f352e3530322c3135302e363037203331372e35352c3135332e30383620333231610aa08201527f2e3634352c3135332e3038365a22207374796c653d2266696c6c3a7267622832610ac08201527f35352c3134362c30293b66696c6c2d72756c653a6e6f6e7a65726f3b222f3e3c610ae08201527f706174682069643d225f30364e2220643d224d3334372e36322c38372e333432610b008201527f4c3336322e3439332c38372e3334324c3337342e3032352c3133322e3530314c610b208201527f3337342e3234312c3133322e3530314c3337342e3234312c38372e3334324c33610b408201527f38342e3830332c38372e3334324c3338342e3830332c3136322e3738364c3337610b608201527f322e3632342c3136322e3738364c3335382e3339382c3130372e3731324c3335610b808201527f382e3138322c3130372e3731324c3335382e3138322c3136322e3738364c3334610ba08201527f372e36322c3136322e3738364c3334372e36322c38372e3334325a2220737479610bc08201527f6c653d2266696c6c3a726762283235352c3134362c30293b66696c6c2d72756c610be08201527f653a6e6f6e7a65726f3b222f3e3c2f673e000000000000000000000000000000610c00820152610c110190565b7f646174613a6170706c69636174696f6e2f6a736f6e3b6261736536342c00000081526000825161496581601d850160208701614a5e565b91909101601d0192915050565b7f5469636b657420230000000000000000000000000000000000000000000000008152600082516149aa816008850160208701614a5e565b9190910160080192915050565b60006001600160a01b03808716835280861660208401525083604083015260806060830152612d996080830184612096565b602081526000611e9a6020830184612096565b60008219821115614a0f57614a0f614b2d565b500190565b600082614a2357614a23614b43565b500490565b6000816000190483118215151615614a4257614a42614b2d565b500290565b600082821015614a5957614a59614b2d565b500390565b60005b83811015614a79578181015183820152602001614a61565b83811115610af65750506000910152565b600081614a9957614a99614b2d565b506000190190565b600181811c90821680614ab557607f821691505b60208210811415614ad657634e487b7160e01b600052602260045260246000fd5b50919050565b600061ffff80831681811415614af457614af4614b2d565b6001019392505050565b6000600019821415614b1257614b12614b2d565b5060010190565b600082614b2857614b28614b43565b500690565b634e487b7160e01b600052601160045260246000fd5b634e487b7160e01b600052601260045260246000fd5b634e487b7160e01b600052604160045260246000fd5b6001600160e01b031981168114610f6d57600080fdfe4142434445464748494a4b4c4d4e4f505152535455565758595a6162636465666768696a6b6c6d6e6f707172737475767778797a303132333435363738392b2fa26469706673582212209bb028e27a7a0df35a7eb7b1491545891faa943ea6619a013ebe2ca9d046a39864736f6c63430008040033",
  "immutableReferences": {},
  "source": "// SPDX-License-Identifier: MIT\npragma solidity ^0.8.4;\n\nimport \"@openzeppelin/contracts/token/ERC721/ERC721.sol\";\nimport \"@openzeppelin/contracts/utils/Counters.sol\";\nimport \"@openzeppelin/contracts/access/Ownable.sol\";\nimport \"@openzeppelin/contracts/utils/Strings.sol\";\nimport 'base64-sol/base64.sol';\n\nimport './HexStrings.sol';\n\n/* \n  visibility modifiers\n  ------------------------------------------------------\n  public: anyone can call\n  private: only this contract\n  internal: only this contract and inheriting contracts\n  external: only external calls (not this contract)\n*/\n\ncontract Foxcon2022 is ERC721, Ownable {\n  using Strings for uint256;\n  using HexStrings for uint160;\n  using Counters for Counters.Counter;\n  Counters.Counter private _tokenIds;\n\n  uint16 _myTotalSupply = 0; // max value 65,535\n  uint16 public MAX_SUPPLY = 8999; // max value 65,535\n  uint256 public constant vipTicketPrice = 50000000000000000; //0.05 ETH\n  uint256 public constant gaTicketPrice = 30000000000000000; //0.03 ETH\n  mapping (uint256 => bool) public gaTicketHolders;\n  mapping (uint256 => bool) public vipTicketHolders;\n\n  constructor() ERC721(\"Foxcon2022\", \"FXC22\") {\n    _tokenIds._value = 999;\n  }\n\n  mapping (uint256 => bytes3) public color;\n  uint256 mintDeadline = block.timestamp + 24 hours;\n\n  function totalSupply() view public returns(uint256) {\n    return _myTotalSupply;\n  }\n\n  function mintItem() public payable returns (uint256) {\n    /* GA BG: 532775, VIP BG: #76104B */\n    require(_myTotalSupply < MAX_SUPPLY, 'Purchase would exceed max supply of Tickets');\n    require(block.timestamp < mintDeadline, 'DONE MINTING');\n    require(vipTicketPrice == msg.value || gaTicketPrice == msg.value, \"Ether value sent is not corect\");\n\n    _tokenIds.increment();\n    uint256 id = _tokenIds.current();\n    _safeMint(msg.sender, id);\n\n    // after mint\n    if(msg.value == vipTicketPrice) {\n      vipTicketHolders[id] = true;\n    } else {\n      gaTicketHolders[id] = true;\n    }\n    _myTotalSupply++;\n\n    return (id);\n  }\n\n  function tokenURI(uint256 id) public view override returns (string memory) {\n    require(_exists(id), \"not exist\");\n    string memory name = string(abi.encodePacked('Ticket #', id.toString() ));\n    string memory description = string(abi.encodePacked('This is an NFT fool!'));\n    string memory image = Base64.encode(bytes(generateSVGofTokenById(id)));\n    string memory ticketType = \"GA\";\n\n    if(vipTicketHolders[id]) {\n      ticketType = \"VIP\";\n    }\n\n    return string(\n      abi.encodePacked(\n        'data:application/json;base64,',\n        Base64.encode(\n          bytes(\n            abi.encodePacked(\n              '{\"name\":\"', name, '\",\"description\":\"', description, '\"', \n              '\"external_url\":\"https://metamask.io/foxcon2022', id.toString(), '\",', \n              '\"attributes\": [{\"ticket_type\": \"',ticketType ,'\"}],',\n              '\"owner\":\"', (uint160(ownerOf(id))).toHexString(20),'\",',\n              '\"image\":\"data:image/svg+xml;base64,', image, '\"}'\n            )\n          )\n        )\n      )\n    );\n  }\n\n  function generateSVGofTokenById(uint256 id) internal view returns (string memory) {\n    return string(abi.encodePacked(\n      '<svg width=\"400\" height=\"400\" xmlns=\"http://www.w3.org/2000/svg\" style=\"fill-rule:evenodd;clip-rule:evenodd;user-select: none;\">',\n        renderTokenBottomById(id),\n        renderTokenTopById(id),\n      '</svg>'\n    ));\n  }\n\n  function renderTokenTopById(uint256 id) internal view returns (string memory) {\n    string memory bgColor = vipTicketHolders[id] ? \"#3C3C3C\" : \"#532775\";\n    string memory ticketType = vipTicketHolders[id] ? \"VIP\" : \"GA\";\n    return string(abi.encodePacked(\n      '<g id=\"top\" transform=\"matrix(0.99784,0,0,1,2.87767e-18,0)\"><path style=\"fill:',bgColor ,'\" d=\"M30,200L20,200C20,188.962 11.038,180 0,180L0,15.368C0,6.886 6.886,0 15.368,0L285.281,0C293.763,0 300.649,6.886 300.649,15.368L300.649,180.033L300,180C288.962,180 280,188.962 280,200L270,200L270,199L264.99,199L264.99,200L260.981,200L260.981,199L255.971,199L255.971,200L251.962,200L251.962,199L246.952,199L246.952,200L242.944,200L242.944,199L237.933,199L237.933,200L233.925,200L233.925,199L228.914,199L228.914,200L224.906,200L224.906,199L219.896,199L219.896,200L215.887,200L215.887,199L210.877,199L210.877,200L206.367,200L206.367,199L201.357,199L201.357,200L197.349,200L197.349,199L192.338,199L192.338,200L188.33,200L188.33,199L183.319,199L183.319,200L179.311,200L179.311,199L174.301,199L174.301,200L170.292,200L170.292,199L165.282,199L165.282,200L161.273,200L161.273,199L156.263,199L156.263,200L152.255,200L152.255,199L147.244,199L147.244,200L143.236,200L143.236,199L138.225,199L138.225,200L134.217,200L134.217,199L129.207,199L129.207,200L125.198,200L125.198,199L120.188,199L120.188,200L116.18,200L116.18,199L111.169,199L111.169,200L107.161,200L107.161,199L102.15,199L102.15,200L98.142,200L98.142,199L93.132,199L93.132,200L89.123,200L89.123,199L84.113,199L84.113,200L80.104,200L80.104,199L75.094,199L75.094,200L71.086,200L71.086,199L66.075,199L66.075,200L62.067,200L62.067,199L57.056,199L57.056,200L53.048,200L53.048,199L48.038,199L48.038,200L44.029,200L44.029,199L39.019,199L39.019,200L35.01,200L35.01,199L30,199L30,200Z\" /></g>',\n      '<g id=\"ticketNumber\" transform=\"matrix(0.759459,0,0,0.759459,-97.1428,-1.84609)\">',\n        '<text x=\"392px\" y=\"208px\" text-align=\"end\" style=\"font-family:''BalooDa2-ExtraBold'';font-weight:800;font-size:35.368px;fill:rgb(255,146,0);\">',\n          '#', id.toString(), \n        '</text>',\n      '</g>',\n      '<g id=\"dateText\" transform=\"matrix(0.955615,0,0,0.891404,-0.890378,-58.3668)\"><text x=\"24px\" y=\"240px\" style=\"font-family:''BalooDa2-Regular'';font-size:30px;fill:#FFF;\">10 DEC / ',ticketType ,'</text></g>',\n      '<g id=\"event\" transform=\"matrix(1.06305,0,0,1.06305,-130.636,-63.8082)\"><path id=\"_01F\" d=\"M142.518,87.342L173.881,87.342L173.881,98.119L154.373,98.119L154.373,119.136L169.678,119.136L169.678,129.914L154.373,129.914L154.373,162.786L142.518,162.786L142.518,87.342Z\" style=\"fill:rgb(255,146,0);fill-rule:nonzero;\"/><path id=\"_02O\" d=\"M196.73,163.864C190.91,163.864 186.455,162.212 183.366,158.906C180.276,155.601 178.731,150.931 178.731,144.895L178.731,105.233C178.731,99.197 180.276,94.527 183.366,91.222C186.455,87.916 190.91,86.264 196.73,86.264C202.55,86.264 207.005,87.916 210.095,91.222C213.184,94.527 214.729,99.197 214.729,105.233L214.729,144.895C214.729,150.931 213.184,155.601 210.095,158.906C207.005,162.212 202.55,163.864 196.73,163.864ZM196.73,153.086C200.826,153.086 202.873,150.607 202.873,145.65L202.873,104.478C202.873,99.521 200.826,97.042 196.73,97.042C192.634,97.042 190.587,99.521 190.587,104.478L190.587,145.65C190.587,150.607 192.634,153.086 196.73,153.086Z\" style=\"fill:rgb(255,146,0);fill-rule:nonzero;\"/><path id=\"_03X\" d=\"M231.435,124.202L218.393,87.342L230.896,87.342L238.871,111.7L239.087,111.7L247.278,87.342L258.487,87.342L245.446,124.202L259.134,162.786L246.631,162.786L238.009,136.489L237.794,136.489L228.956,162.786L217.747,162.786L231.435,124.202Z\" style=\"fill:rgb(255,146,0);fill-rule:nonzero;\"/><path id=\"_04C\" d=\"M279.719,163.864C274.043,163.864 269.714,162.248 266.732,159.014C263.75,155.781 262.259,151.218 262.259,145.326L262.259,104.802C262.259,98.91 263.75,94.347 266.732,91.114C269.714,87.88 274.043,86.264 279.719,86.264C285.396,86.264 289.725,87.88 292.707,91.114C295.689,94.347 297.179,98.91 297.179,104.802L297.179,112.777L285.971,112.777L285.971,104.047C285.971,99.377 283.995,97.042 280.043,97.042C276.091,97.042 274.115,99.377 274.115,104.047L274.115,146.189C274.115,150.787 276.091,153.086 280.043,153.086C283.995,153.086 285.971,150.787 285.971,146.189L285.971,134.656L297.179,134.656L297.179,145.326C297.179,151.218 295.689,155.781 292.707,159.014C289.725,162.248 285.396,163.864 279.719,163.864Z\" style=\"fill:rgb(255,146,0);fill-rule:nonzero;\"/><path id=\"_05O\" d=\"M321.645,163.864C315.825,163.864 311.37,162.212 308.281,158.906C305.191,155.601 303.646,150.931 303.646,144.895L303.646,105.233C303.646,99.197 305.191,94.527 308.281,91.222C311.37,87.916 315.825,86.264 321.645,86.264C327.465,86.264 331.92,87.916 335.01,91.222C338.099,94.527 339.644,99.197 339.644,105.233L339.644,144.895C339.644,150.931 338.099,155.601 335.01,158.906C331.92,162.212 327.465,163.864 321.645,163.864ZM321.645,153.086C325.741,153.086 327.789,150.607 327.789,145.65L327.789,104.478C327.789,99.521 325.741,97.042 321.645,97.042C317.55,97.042 315.502,99.521 315.502,104.478L315.502,145.65C315.502,150.607 317.55,153.086 321.645,153.086Z\" style=\"fill:rgb(255,146,0);fill-rule:nonzero;\"/><path id=\"_06N\" d=\"M347.62,87.342L362.493,87.342L374.025,132.501L374.241,132.501L374.241,87.342L384.803,87.342L384.803,162.786L372.624,162.786L358.398,107.712L358.182,107.712L358.182,162.786L347.62,162.786L347.62,87.342Z\" style=\"fill:rgb(255,146,0);fill-rule:nonzero;\"/></g>'\n    ));\n  }\n\n  function renderTokenBottomById(uint256 id) internal view returns (string memory) {\n    string memory bgColor = vipTicketHolders[id] ? \"#3C3C3C\" : \"#532775\";\n    string memory ticketType = vipTicketHolders[id] ? \"      VIP\" : \"General Admission\";\n    return string(abi.encodePacked(\n      '<g id=\"stub1\" transform=\"matrix(1.13574,0,0,1,-32.7365,0.204182)\"><path style=\"fill:',bgColor ,'\" d=\"M266.04,199.796L274.826,199.796C274.826,210.834 282.7,219.796 292.398,219.796L292.968,219.763L292.968,284.428C292.968,292.91 286.918,299.796 279.466,299.796L42.326,299.796C34.874,299.796 28.824,292.91 28.824,284.428L28.824,219.796C38.522,219.796 46.395,210.834 46.395,199.796L55.181,199.796L55.181,200.796L59.583,200.796L59.583,199.796L63.105,199.796L63.105,200.796L67.507,200.796L67.507,199.796L71.029,199.796L71.029,200.796L75.431,200.796L75.431,199.796L78.952,199.796L78.952,200.796L83.354,200.796L83.354,199.796L86.876,199.796L86.876,200.796L91.278,200.796L91.278,199.796L94.8,199.796L94.8,200.796L99.202,200.796L99.202,199.796L102.724,199.796L102.724,200.796L107.126,200.796L107.126,199.796L110.647,199.796L110.647,200.796L115.049,200.796L115.049,199.796L118.571,199.796L118.571,200.796L122.973,200.796L122.973,199.796L126.495,199.796L126.495,200.796L130.897,200.796L130.897,199.796L134.418,199.796L134.418,200.796L138.821,200.796L138.821,199.796L142.342,199.796L142.342,200.796L146.744,200.796L146.744,199.796L150.266,199.796L150.266,200.796L154.668,200.796L154.668,199.796L158.19,199.796L158.19,200.796L162.592,200.796L162.592,199.796L166.113,199.796L166.113,200.796L170.515,200.796L170.515,199.796L174.037,199.796L174.037,200.796L178.439,200.796L178.439,199.796L181.961,199.796L181.961,200.796L186.363,200.796L186.363,199.796L189.885,199.796L189.885,200.796L194.287,200.796L194.287,199.796L197.808,199.796L197.808,200.796L202.21,200.796L202.21,199.796L205.732,199.796L205.732,200.796L210.134,200.796L210.134,199.796L214.096,199.796L214.096,200.796L218.498,200.796L218.498,199.796L222.02,199.796L222.02,200.796L226.422,200.796L226.422,199.796L229.943,199.796L229.943,200.796L234.345,200.796L234.345,199.796L237.867,199.796L237.867,200.796L242.269,200.796L242.269,199.796L245.791,199.796L245.791,200.796L250.193,200.796L250.193,199.796L253.714,199.796L253.714,200.796L258.117,200.796L258.117,199.796L261.638,199.796L261.638,200.796L266.04,200.796L266.04,199.796Z\" /></g>',\n      '<g id=\"stub2\" transform=\"matrix(0.489601,0,0,0.489601,36.3616,34.5613)\">',\n        '<text x=\"78px\" y=\"455px\" style=\"font-family:''BalooDa2-ExtraBold'';font-weight:800;font-size:108px;fill:#FFF;\">',\n          '#', id.toString(), \n        '</text>',\n      '</g>',\n      '<g id=\"stub3\" transform=\"matrix(0.160667,0,0,0.160667,66.1511,212.911)\"><text x=\"62px\" y=\"410px\" style=\"font-family:''BalooDa2-ExtraBold'';font-weight:800;font-size:108px;fill:#FF9200;\">',ticketType ,'</text></g>'\n    ));\n  }\n\n}",
  "sourcePath": "/Users/eric/src/github/metamask/nft-tickets-workshop/contracts/Foxcon2022.sol",
  "compiler": {
    "name": "solc",
    "version": "0.8.4+commit.c7e474f2.Emscripten.clang"
  },
  "schemaVersion": "3.4.5",
  "updatedAt": "2022-03-10T20:01:21.958Z",
  "networkType": "ethereum",
  "devdoc": {
    "kind": "dev",
    "methods": {
      "approve(address,uint256)": {
        "details": "See {IERC721-approve}."
      },
      "balanceOf(address)": {
        "details": "See {IERC721-balanceOf}."
      },
      "getApproved(uint256)": {
        "details": "See {IERC721-getApproved}."
      },
      "isApprovedForAll(address,address)": {
        "details": "See {IERC721-isApprovedForAll}."
      },
      "name()": {
        "details": "See {IERC721Metadata-name}."
      },
      "owner()": {
        "details": "Returns the address of the current owner."
      },
      "ownerOf(uint256)": {
        "details": "See {IERC721-ownerOf}."
      },
      "renounceOwnership()": {
        "details": "Leaves the contract without owner. It will not be possible to call `onlyOwner` functions anymore. Can only be called by the current owner. NOTE: Renouncing ownership will leave the contract without an owner, thereby removing any functionality that is only available to the owner."
      },
      "safeTransferFrom(address,address,uint256)": {
        "details": "See {IERC721-safeTransferFrom}."
      },
      "safeTransferFrom(address,address,uint256,bytes)": {
        "details": "See {IERC721-safeTransferFrom}."
      },
      "setApprovalForAll(address,bool)": {
        "details": "See {IERC721-setApprovalForAll}."
      },
      "supportsInterface(bytes4)": {
        "details": "See {IERC165-supportsInterface}."
      },
      "symbol()": {
        "details": "See {IERC721Metadata-symbol}."
      },
      "transferFrom(address,address,uint256)": {
        "details": "See {IERC721-transferFrom}."
      },
      "transferOwnership(address)": {
        "details": "Transfers ownership of the contract to a new account (`newOwner`). Can only be called by the current owner."
      }
    },
    "version": 1
  },
  "userdoc": {
    "kind": "user",
    "methods": {},
    "version": 1
  }
}