{
  "contractName": "Foxcon2022",
  "abi": [
    {
      "inputs": [],
      "stateMutability": "nonpayable",
      "type": "constructor"
    },
    {
      "anonymous": false,
      "inputs": [
        {
          "indexed": true,
          "internalType": "address",
          "name": "owner",
          "type": "address"
        },
        {
          "indexed": true,
          "internalType": "address",
          "name": "approved",
          "type": "address"
        },
        {
          "indexed": true,
          "internalType": "uint256",
          "name": "tokenId",
          "type": "uint256"
        }
      ],
      "name": "Approval",
      "type": "event"
    },
    {
      "anonymous": false,
      "inputs": [
        {
          "indexed": true,
          "internalType": "address",
          "name": "owner",
          "type": "address"
        },
        {
          "indexed": true,
          "internalType": "address",
          "name": "operator",
          "type": "address"
        },
        {
          "indexed": false,
          "internalType": "bool",
          "name": "approved",
          "type": "bool"
        }
      ],
      "name": "ApprovalForAll",
      "type": "event"
    },
    {
      "anonymous": false,
      "inputs": [
        {
          "indexed": true,
          "internalType": "address",
          "name": "previousOwner",
          "type": "address"
        },
        {
          "indexed": true,
          "internalType": "address",
          "name": "newOwner",
          "type": "address"
        }
      ],
      "name": "OwnershipTransferred",
      "type": "event"
    },
    {
      "anonymous": false,
      "inputs": [
        {
          "indexed": true,
          "internalType": "address",
          "name": "from",
          "type": "address"
        },
        {
          "indexed": true,
          "internalType": "address",
          "name": "to",
          "type": "address"
        },
        {
          "indexed": true,
          "internalType": "uint256",
          "name": "tokenId",
          "type": "uint256"
        }
      ],
      "name": "Transfer",
      "type": "event"
    },
    {
      "inputs": [],
      "name": "MAX_SUPPLY",
      "outputs": [
        {
          "internalType": "uint16",
          "name": "",
          "type": "uint16"
        }
      ],
      "stateMutability": "view",
      "type": "function",
      "constant": true
    },
    {
      "inputs": [
        {
          "internalType": "address",
          "name": "to",
          "type": "address"
        },
        {
          "internalType": "uint256",
          "name": "tokenId",
          "type": "uint256"
        }
      ],
      "name": "approve",
      "outputs": [],
      "stateMutability": "nonpayable",
      "type": "function"
    },
    {
      "inputs": [
        {
          "internalType": "address",
          "name": "owner",
          "type": "address"
        }
      ],
      "name": "balanceOf",
      "outputs": [
        {
          "internalType": "uint256",
          "name": "",
          "type": "uint256"
        }
      ],
      "stateMutability": "view",
      "type": "function",
      "constant": true
    },
    {
      "inputs": [
        {
          "internalType": "uint256",
          "name": "",
          "type": "uint256"
        }
      ],
      "name": "color",
      "outputs": [
        {
          "internalType": "bytes3",
          "name": "",
          "type": "bytes3"
        }
      ],
      "stateMutability": "view",
      "type": "function",
      "constant": true
    },
    {
      "inputs": [
        {
          "internalType": "uint256",
          "name": "",
          "type": "uint256"
        }
      ],
      "name": "gaTicketHolders",
      "outputs": [
        {
          "internalType": "bool",
          "name": "",
          "type": "bool"
        }
      ],
      "stateMutability": "view",
      "type": "function",
      "constant": true
    },
    {
      "inputs": [],
      "name": "gaTicketPrice",
      "outputs": [
        {
          "internalType": "uint256",
          "name": "",
          "type": "uint256"
        }
      ],
      "stateMutability": "view",
      "type": "function",
      "constant": true
    },
    {
      "inputs": [
        {
          "internalType": "uint256",
          "name": "tokenId",
          "type": "uint256"
        }
      ],
      "name": "getApproved",
      "outputs": [
        {
          "internalType": "address",
          "name": "",
          "type": "address"
        }
      ],
      "stateMutability": "view",
      "type": "function",
      "constant": true
    },
    {
      "inputs": [
        {
          "internalType": "address",
          "name": "owner",
          "type": "address"
        },
        {
          "internalType": "address",
          "name": "operator",
          "type": "address"
        }
      ],
      "name": "isApprovedForAll",
      "outputs": [
        {
          "internalType": "bool",
          "name": "",
          "type": "bool"
        }
      ],
      "stateMutability": "view",
      "type": "function",
      "constant": true
    },
    {
      "inputs": [],
      "name": "name",
      "outputs": [
        {
          "internalType": "string",
          "name": "",
          "type": "string"
        }
      ],
      "stateMutability": "view",
      "type": "function",
      "constant": true
    },
    {
      "inputs": [],
      "name": "owner",
      "outputs": [
        {
          "internalType": "address",
          "name": "",
          "type": "address"
        }
      ],
      "stateMutability": "view",
      "type": "function",
      "constant": true
    },
    {
      "inputs": [
        {
          "internalType": "uint256",
          "name": "tokenId",
          "type": "uint256"
        }
      ],
      "name": "ownerOf",
      "outputs": [
        {
          "internalType": "address",
          "name": "",
          "type": "address"
        }
      ],
      "stateMutability": "view",
      "type": "function",
      "constant": true
    },
    {
      "inputs": [],
      "name": "renounceOwnership",
      "outputs": [],
      "stateMutability": "nonpayable",
      "type": "function"
    },
    {
      "inputs": [
        {
          "internalType": "address",
          "name": "from",
          "type": "address"
        },
        {
          "internalType": "address",
          "name": "to",
          "type": "address"
        },
        {
          "internalType": "uint256",
          "name": "tokenId",
          "type": "uint256"
        }
      ],
      "name": "safeTransferFrom",
      "outputs": [],
      "stateMutability": "nonpayable",
      "type": "function"
    },
    {
      "inputs": [
        {
          "internalType": "address",
          "name": "from",
          "type": "address"
        },
        {
          "internalType": "address",
          "name": "to",
          "type": "address"
        },
        {
          "internalType": "uint256",
          "name": "tokenId",
          "type": "uint256"
        },
        {
          "internalType": "bytes",
          "name": "_data",
          "type": "bytes"
        }
      ],
      "name": "safeTransferFrom",
      "outputs": [],
      "stateMutability": "nonpayable",
      "type": "function"
    },
    {
      "inputs": [
        {
          "internalType": "address",
          "name": "operator",
          "type": "address"
        },
        {
          "internalType": "bool",
          "name": "approved",
          "type": "bool"
        }
      ],
      "name": "setApprovalForAll",
      "outputs": [],
      "stateMutability": "nonpayable",
      "type": "function"
    },
    {
      "inputs": [
        {
          "internalType": "bytes4",
          "name": "interfaceId",
          "type": "bytes4"
        }
      ],
      "name": "supportsInterface",
      "outputs": [
        {
          "internalType": "bool",
          "name": "",
          "type": "bool"
        }
      ],
      "stateMutability": "view",
      "type": "function",
      "constant": true
    },
    {
      "inputs": [],
      "name": "symbol",
      "outputs": [
        {
          "internalType": "string",
          "name": "",
          "type": "string"
        }
      ],
      "stateMutability": "view",
      "type": "function",
      "constant": true
    },
    {
      "inputs": [
        {
          "internalType": "address",
          "name": "from",
          "type": "address"
        },
        {
          "internalType": "address",
          "name": "to",
          "type": "address"
        },
        {
          "internalType": "uint256",
          "name": "tokenId",
          "type": "uint256"
        }
      ],
      "name": "transferFrom",
      "outputs": [],
      "stateMutability": "nonpayable",
      "type": "function"
    },
    {
      "inputs": [
        {
          "internalType": "address",
          "name": "newOwner",
          "type": "address"
        }
      ],
      "name": "transferOwnership",
      "outputs": [],
      "stateMutability": "nonpayable",
      "type": "function"
    },
    {
      "inputs": [
        {
          "internalType": "uint256",
          "name": "",
          "type": "uint256"
        }
      ],
      "name": "vipTicketHolders",
      "outputs": [
        {
          "internalType": "bool",
          "name": "",
          "type": "bool"
        }
      ],
      "stateMutability": "view",
      "type": "function",
      "constant": true
    },
    {
      "inputs": [],
      "name": "vipTicketPrice",
      "outputs": [
        {
          "internalType": "uint256",
          "name": "",
          "type": "uint256"
        }
      ],
      "stateMutability": "view",
      "type": "function",
      "constant": true
    },
    {
      "inputs": [],
      "name": "totalSupply",
      "outputs": [
        {
          "internalType": "uint256",
          "name": "",
          "type": "uint256"
        }
      ],
      "stateMutability": "view",
      "type": "function",
      "constant": true
    },
    {
      "inputs": [],
      "name": "contractURI",
      "outputs": [
        {
          "internalType": "string",
          "name": "",
          "type": "string"
        }
      ],
      "stateMutability": "pure",
      "type": "function",
      "constant": true
    },
    {
      "inputs": [],
      "name": "mintItem",
      "outputs": [
        {
          "internalType": "uint256",
          "name": "",
          "type": "uint256"
        }
      ],
      "stateMutability": "payable",
      "type": "function",
      "payable": true
    },
    {
      "inputs": [
        {
          "internalType": "uint256",
          "name": "id",
          "type": "uint256"
        }
      ],
      "name": "tokenURI",
      "outputs": [
        {
          "internalType": "string",
          "name": "",
          "type": "string"
        }
      ],
      "stateMutability": "view",
      "type": "function",
      "constant": true
    }
  ],
  "bytecode": "0x60806040526008805463ffffffff19166323270000179055620000264262015180620001c1565b600c553480156200003657600080fd5b50604080518082018252600a8152692337bc31b7b71918191960b11b602080830191825283518085019094526005845264232c21991960d91b90840152815191929162000086916000916200011b565b5080516200009c9060019060208401906200011b565b505050620000b9620000b3620000c560201b60201c565b620000c9565b6103e760075562000223565b3390565b600680546001600160a01b038381166001600160a01b0319831681179093556040519116919082907f8be0079c531659141344cd1fd0a4f28419497f9722a3daafe3b4186f6b6457e090600090a35050565b8280546200012990620001e6565b90600052602060002090601f0160209004810192826200014d576000855562000198565b82601f106200016857805160ff191683800117855562000198565b8280016001018555821562000198579182015b82811115620001985782518255916020019190600101906200017b565b50620001a6929150620001aa565b5090565b5b80821115620001a65760008155600101620001ab565b60008219821115620001e157634e487b7160e01b81526011600452602481fd5b500190565b600181811c90821680620001fb57607f821691505b602082108114156200021d57634e487b7160e01b600052602260045260246000fd5b50919050565b61562a80620002336000396000f3fe6080604052600436106101965760003560e01c8063715018a6116100e1578063c87b56dd1161008a578063e8a3d48511610064578063e8a3d485146104c2578063e985e9c5146104d7578063eb93406b14610520578063f2fde38b1461052857600080fd5b8063c87b56dd14610411578063cf71d4f514610431578063d4e28c9c1461046157600080fd5b806395d89b41116100bb57806395d89b41146103bc578063a22cb465146103d1578063b88d4fde146103f157600080fd5b8063715018a6146103595780638146581a1461036e5780638da5cb5b1461039e57600080fd5b806326ff40de1161014357806344c485a31161011d57806344c485a3146102fe5780636352211e1461031957806370a082311461033957600080fd5b806326ff40de1461028f57806332cb6b0c146102aa57806342842e0e146102de57600080fd5b8063095ea7b311610174578063095ea7b31461022a57806318160ddd1461024c57806323b872dd1461026f57600080fd5b806301ffc9a71461019b57806306fdde03146101d0578063081812fc146101f2575b600080fd5b3480156101a757600080fd5b506101bb6101b63660046120d6565b610548565b60405190151581526020015b60405180910390f35b3480156101dc57600080fd5b506101e56105e5565b6040516101c79190615418565b3480156101fe57600080fd5b5061021261020d36600461210e565b610677565b6040516001600160a01b0390911681526020016101c7565b34801561023657600080fd5b5061024a6102453660046120ad565b610711565b005b34801561025857600080fd5b5060085461ffff165b6040519081526020016101c7565b34801561027b57600080fd5b5061024a61028a366004611f63565b610843565b34801561029b57600080fd5b50610261666a94d74f43000081565b3480156102b657600080fd5b506008546102cb9062010000900461ffff1681565b60405161ffff90911681526020016101c7565b3480156102ea57600080fd5b5061024a6102f9366004611f63565b6108ca565b34801561030a57600080fd5b5061026166b1a2bc2ec5000081565b34801561032557600080fd5b5061021261033436600461210e565b6108e5565b34801561034557600080fd5b50610261610354366004611f10565b610970565b34801561036557600080fd5b5061024a610a0a565b34801561037a57600080fd5b506101bb61038936600461210e565b600a6020526000908152604090205460ff1681565b3480156103aa57600080fd5b506006546001600160a01b0316610212565b3480156103c857600080fd5b506101e5610a70565b3480156103dd57600080fd5b5061024a6103ec366004612073565b610a7f565b3480156103fd57600080fd5b5061024a61040c366004611f9e565b610a8e565b34801561041d57600080fd5b506101e561042c36600461210e565b610b1c565b34801561043d57600080fd5b506101bb61044c36600461210e565b60096020526000908152604090205460ff1681565b34801561046d57600080fd5b5061049161047c36600461210e565b600b6020526000908152604090205460e81b81565b6040517fffffff000000000000000000000000000000000000000000000000000000000090911681526020016101c7565b3480156104ce57600080fd5b506101e5610ccc565b3480156104e357600080fd5b506101bb6104f2366004611f31565b6001600160a01b03918216600090815260056020908152604080832093909416825291909152205460ff1690565b610261610d4f565b34801561053457600080fd5b5061024a610543366004611f10565b610f35565b60006001600160e01b031982167f80ac58cd0000000000000000000000000000000000000000000000000000000014806105ab57506001600160e01b031982167f5b5e139f00000000000000000000000000000000000000000000000000000000145b806105df57507f01ffc9a7000000000000000000000000000000000000000000000000000000006001600160e01b03198316145b92915050565b6060600080546105f4906154d0565b80601f0160208091040260200160405190810160405280929190818152602001828054610620906154d0565b801561066d5780601f106106425761010080835404028352916020019161066d565b820191906000526020600020905b81548152906001019060200180831161065057829003601f168201915b5050505050905090565b6000818152600260205260408120546001600160a01b03166106f55760405162461bcd60e51b815260206004820152602c60248201527f4552433732313a20617070726f76656420717565727920666f72206e6f6e657860448201526b34b9ba32b73a103a37b5b2b760a11b60648201526084015b60405180910390fd5b506000908152600460205260409020546001600160a01b031690565b600061071c826108e5565b9050806001600160a01b0316836001600160a01b031614156107a65760405162461bcd60e51b815260206004820152602160248201527f4552433732313a20617070726f76616c20746f2063757272656e74206f776e6560448201527f720000000000000000000000000000000000000000000000000000000000000060648201526084016106ec565b336001600160a01b03821614806107c257506107c281336104f2565b6108345760405162461bcd60e51b815260206004820152603860248201527f4552433732313a20617070726f76652063616c6c6572206973206e6f74206f7760448201527f6e6572206e6f7220617070726f76656420666f7220616c6c000000000000000060648201526084016106ec565b61083e8383611017565b505050565b61084d3382611092565b6108bf5760405162461bcd60e51b815260206004820152603160248201527f4552433732313a207472616e736665722063616c6c6572206973206e6f74206f60448201527f776e6572206e6f7220617070726f76656400000000000000000000000000000060648201526084016106ec565b61083e838383611189565b61083e83838360405180602001604052806000815250610a8e565b6000818152600260205260408120546001600160a01b0316806105df5760405162461bcd60e51b815260206004820152602960248201527f4552433732313a206f776e657220717565727920666f72206e6f6e657869737460448201527f656e7420746f6b656e000000000000000000000000000000000000000000000060648201526084016106ec565b60006001600160a01b0382166109ee5760405162461bcd60e51b815260206004820152602a60248201527f4552433732313a2062616c616e636520717565727920666f7220746865207a6560448201527f726f20616464726573730000000000000000000000000000000000000000000060648201526084016106ec565b506001600160a01b031660009081526003602052604090205490565b6006546001600160a01b03163314610a645760405162461bcd60e51b815260206004820181905260248201527f4f776e61626c653a2063616c6c6572206973206e6f7420746865206f776e657260448201526064016106ec565b610a6e6000611363565b565b6060600180546105f4906154d0565b610a8a3383836113c2565b5050565b610a983383611092565b610b0a5760405162461bcd60e51b815260206004820152603160248201527f4552433732313a207472616e736665722063616c6c6572206973206e6f74206f60448201527f776e6572206e6f7220617070726f76656400000000000000000000000000000060648201526084016106ec565b610b1684848484611491565b50505050565b6000818152600260205260409020546060906001600160a01b0316610b835760405162461bcd60e51b815260206004820152600960248201527f6e6f74206578697374000000000000000000000000000000000000000000000060448201526064016106ec565b6000610b8e8361150f565b604051602001610b9e91906153a1565b60408051808303601f190181528282527f5468697320697320616e204e465420666f6f6c21000000000000000000000000602084015281516014818503018152603490930190915291506000610bfb610bf686611629565b611664565b6000868152600a6020526040812054919250908490849060ff16610c395760405180604001604052806002815260200161474160f01b815250610c56565b6040518060400160405280600381526020016205649560ec1b8152505b610c736014610c648b6108e5565b6001600160a01b03169061180f565b85604051602001610c88959493929190612a49565b6040516020818303038152906040529050610ca281611664565b604051602001610cb2919061535c565b604051602081830303815290604052945050505050919050565b60606000610cdb610bf66119d3565b9050600081604051602001610cf09190614f26565b6040516020818303038152906040529050610d2981604051602001610d15919061216e565b604051602081830303815290604052611664565b604051602001610d39919061535c565b6040516020818303038152906040529250505090565b60085460009061ffff6201000082048116911610610dd55760405162461bcd60e51b815260206004820152602b60248201527f507572636861736520776f756c6420657863656564206d617820737570706c7960448201527f206f66205469636b65747300000000000000000000000000000000000000000060648201526084016106ec565b600c544210610e265760405162461bcd60e51b815260206004820152600c60248201527f444f4e45204d494e54494e47000000000000000000000000000000000000000060448201526064016106ec565b3466b1a2bc2ec500001480610e41575034666a94d74f430000145b610e8d5760405162461bcd60e51b815260206004820152601e60248201527f45746865722076616c75652073656e74206973206e6f7420636f72656374000060448201526064016106ec565b610e9b600780546001019055565b6000610ea660075490565b9050610eb233826119f8565b66b1a2bc2ec500003414610ee1576000818152600960205260409020805460ff19166001908117909155610efe565b6000818152600a60205260409020805460ff191660019081179091555b506008805461ffff16906000610f138361550b565b91906101000a81548161ffff021916908361ffff160217905550508091505090565b6006546001600160a01b03163314610f8f5760405162461bcd60e51b815260206004820181905260248201527f4f776e61626c653a2063616c6c6572206973206e6f7420746865206f776e657260448201526064016106ec565b6001600160a01b03811661100b5760405162461bcd60e51b815260206004820152602660248201527f4f776e61626c653a206e6577206f776e657220697320746865207a65726f206160448201527f646472657373000000000000000000000000000000000000000000000000000060648201526084016106ec565b61101481611363565b50565b6000818152600460205260409020805473ffffffffffffffffffffffffffffffffffffffff19166001600160a01b0384169081179091558190611059826108e5565b6001600160a01b03167f8c5be1e5ebec7d5bd14f71427d1e84f3dd0314c0f7b2291e5b200ac8c7c3b92560405160405180910390a45050565b6000818152600260205260408120546001600160a01b031661110b5760405162461bcd60e51b815260206004820152602c60248201527f4552433732313a206f70657261746f7220717565727920666f72206e6f6e657860448201526b34b9ba32b73a103a37b5b2b760a11b60648201526084016106ec565b6000611116836108e5565b9050806001600160a01b0316846001600160a01b031614806111515750836001600160a01b031661114684610677565b6001600160a01b0316145b8061118157506001600160a01b0380821660009081526005602090815260408083209388168352929052205460ff165b949350505050565b826001600160a01b031661119c826108e5565b6001600160a01b0316146112185760405162461bcd60e51b815260206004820152602560248201527f4552433732313a207472616e736665722066726f6d20696e636f72726563742060448201527f6f776e657200000000000000000000000000000000000000000000000000000060648201526084016106ec565b6001600160a01b0382166112935760405162461bcd60e51b8152602060048201526024808201527f4552433732313a207472616e7366657220746f20746865207a65726f2061646460448201527f726573730000000000000000000000000000000000000000000000000000000060648201526084016106ec565b61129e600082611017565b6001600160a01b03831660009081526003602052604081208054600192906112c7908490615476565b90915550506001600160a01b03821660009081526003602052604081208054600192906112f590849061542b565b9091555050600081815260026020526040808220805473ffffffffffffffffffffffffffffffffffffffff19166001600160a01b0386811691821790925591518493918716917fddf252ad1be2c89b69c2b068fc378daa952ba7f163c4a11628f55a4df523b3ef91a4505050565b600680546001600160a01b0383811673ffffffffffffffffffffffffffffffffffffffff19831681179093556040519116919082907f8be0079c531659141344cd1fd0a4f28419497f9722a3daafe3b4186f6b6457e090600090a35050565b816001600160a01b0316836001600160a01b031614156114245760405162461bcd60e51b815260206004820152601960248201527f4552433732313a20617070726f766520746f2063616c6c65720000000000000060448201526064016106ec565b6001600160a01b03838116600081815260056020908152604080832094871680845294825291829020805460ff191686151590811790915591519182527f17307eab39ab6107e8899845ad3d59bd9653f200f220920489ca2b5937696c31910160405180910390a3505050565b61149c848484611189565b6114a884848484611a12565b610b165760405162461bcd60e51b815260206004820152603260248201527f4552433732313a207472616e7366657220746f206e6f6e20455243373231526560448201527131b2b4bb32b91034b6b83632b6b2b73a32b960711b60648201526084016106ec565b6060816115335750506040805180820190915260018152600360fc1b602082015290565b8160005b811561155d57806115478161552d565b91506115569050600a83615443565b9150611537565b60008167ffffffffffffffff81111561158657634e487b7160e01b600052604160045260246000fd5b6040519080825280601f01601f1916602001820160405280156115b0576020820181803683370190505b5090505b8415611181576115c5600183615476565b91506115d2600a86615548565b6115dd90603061542b565b60f81b81838151811061160057634e487b7160e01b600052603260045260246000fd5b60200101906001600160f81b031916908160001a905350611622600a86615443565b94506115b4565b606061163482611b6a565b61163d83611c64565b60405160200161164e929190615149565b6040516020818303038152906040529050919050565b606081516000141561168457505060408051602081019091526000815290565b60006040518060600160405280604081526020016155b560409139905060006003845160026116b3919061542b565b6116bd9190615443565b6116c8906004615457565b905060006116d782602061542b565b67ffffffffffffffff8111156116fd57634e487b7160e01b600052604160045260246000fd5b6040519080825280601f01601f191660200182016040528015611727576020820181803683370190505b509050818152600183018586518101602084015b81831015611793576003830192508251603f8160121c168501518253600182019150603f81600c1c168501518253600182019150603f8160061c168501518253600182019150603f811685015182535060010161173b565b6003895106600181146117ad57600281146117d957611801565b7f3d3d000000000000000000000000000000000000000000000000000000000000600119830152611801565b7f3d000000000000000000000000000000000000000000000000000000000000006000198301525b509398975050505050505050565b6060600061181e836002615457565b61182990600261542b565b67ffffffffffffffff81111561184f57634e487b7160e01b600052604160045260246000fd5b6040519080825280601f01601f191660200182016040528015611879576020820181803683370190505b509050600360fc1b816000815181106118a257634e487b7160e01b600052603260045260246000fd5b60200101906001600160f81b031916908160001a9053507f7800000000000000000000000000000000000000000000000000000000000000816001815181106118fb57634e487b7160e01b600052603260045260246000fd5b60200101906001600160f81b031916908160001a905350600061191f846002615457565b61192a90600161542b565b90505b60018111156119cb577f303132333435363738396162636465660000000000000000000000000000000085600f166010811061197957634e487b7160e01b600052603260045260246000fd5b1a60f81b82828151811061199d57634e487b7160e01b600052603260045260246000fd5b60200101906001600160f81b031916908160001a90535060049490941c936119c4816154b9565b905061192d565b509392505050565b60606040516020016119e49061218a565b604051602081830303815290604052905090565b610a8a828260405180602001604052806000815250611d27565b60006001600160a01b0384163b15611b5f57604051630a85bd0160e11b81526001600160a01b0385169063150b7a0290611a569033908990889088906004016153e6565b602060405180830381600087803b158015611a7057600080fd5b505af1925050508015611aa0575060408051601f3d908101601f19168201909252611a9d918101906120f2565b60015b611b45573d808015611ace576040519150601f19603f3d011682016040523d82523d6000602084013e611ad3565b606091505b508051611b3d5760405162461bcd60e51b815260206004820152603260248201527f4552433732313a207472616e7366657220746f206e6f6e20455243373231526560448201527131b2b4bb32b91034b6b83632b6b2b73a32b960711b60648201526084016106ec565b805181602001fd5b6001600160e01b031916630a85bd0160e11b149050611181565b506001949350505050565b6000818152600a60205260408120546060919060ff16611bbf576040518060400160405280601181526020017f47656e6572616c2041646d697373696f6e000000000000000000000000000000815250611bdc565b6040518060400160405280600381526020016205649560ec1b8152505b6000848152600a602052604090205490915060ff16611c155760405180604001604052806002815260200161733760f01b815250611c31565b60405180604001604052806002815260200161399b60f11b8152505b611c3a8461150f565b82604051602001611c4d939291906143e7565b604051602081830303815290604052915050919050565b6000818152600a602052604090205460609060ff16611c9d5760405180604001604052806002815260200161733760f01b815250611cb9565b60405180604001604052806002815260200161399b60f11b8152505b611cc28361150f565b6000848152600a602052604090205460ff16611cf85760405180604001604052806002815260200161474160f01b815250611d15565b6040518060400160405280600381526020016205649560ec1b8152505b60405160200161164e93929190612c16565b611d318383611da5565b611d3e6000848484611a12565b61083e5760405162461bcd60e51b815260206004820152603260248201527f4552433732313a207472616e7366657220746f206e6f6e20455243373231526560448201527131b2b4bb32b91034b6b83632b6b2b73a32b960711b60648201526084016106ec565b6001600160a01b038216611dfb5760405162461bcd60e51b815260206004820181905260248201527f4552433732313a206d696e7420746f20746865207a65726f206164647265737360448201526064016106ec565b6000818152600260205260409020546001600160a01b031615611e605760405162461bcd60e51b815260206004820152601c60248201527f4552433732313a20746f6b656e20616c7265616479206d696e7465640000000060448201526064016106ec565b6001600160a01b0382166000908152600360205260408120805460019290611e8990849061542b565b9091555050600081815260026020526040808220805473ffffffffffffffffffffffffffffffffffffffff19166001600160a01b03861690811790915590518392907fddf252ad1be2c89b69c2b068fc378daa952ba7f163c4a11628f55a4df523b3ef908290a45050565b80356001600160a01b0381168114611f0b57600080fd5b919050565b600060208284031215611f21578081fd5b611f2a82611ef4565b9392505050565b60008060408385031215611f43578081fd5b611f4c83611ef4565b9150611f5a60208401611ef4565b90509250929050565b600080600060608486031215611f77578081fd5b611f8084611ef4565b9250611f8e60208501611ef4565b9150604084013590509250925092565b60008060008060808587031215611fb3578081fd5b611fbc85611ef4565b9350611fca60208601611ef4565b925060408501359150606085013567ffffffffffffffff80821115611fed578283fd5b818701915087601f830112612000578283fd5b81358181111561201257612012615588565b604051601f8201601f19908116603f0116810190838211818310171561203a5761203a615588565b816040528281528a6020848701011115612052578586fd5b82602086016020830137918201602001949094529598949750929550505050565b60008060408385031215612085578182fd5b61208e83611ef4565b9150602083013580151581146120a2578182fd5b809150509250929050565b600080604083850312156120bf578182fd5b6120c883611ef4565b946020939093013593505050565b6000602082840312156120e7578081fd5b8135611f2a8161559e565b600060208284031215612103578081fd5b8151611f2a8161559e565b60006020828403121561211f578081fd5b5035919050565b6000815180845261213e81602086016020860161548d565b601f01601f19169290920160200192915050565b6000815161216481856020860161548d565b9290920192915050565b6000825161218081846020870161548d565b9190910192915050565b7f3c7376672077696474683d223130302522206865696768743d2231303025222081527f76696577426f783d22302030203335203333222076657273696f6e3d22312e3160208201527f2220786d6c6e733d22687474703a2f2f7777772e77332e6f72672f323030302f60408201527f73766722207374796c653d2266696c6c2d72756c653a6576656e6f64643b636c60608201527f69702d72756c653a6576656e6f64643b7374726f6b652d6c696e656a6f696e3a60808201527f726f756e643b7374726f6b652d6d697465726c696d69743a323b223e0000000060a08201527f3c673e3c7061746820643d224d31302e3238362c32392e3133394c31302e323860bc8201527f352c32392e3133384c322e3439392c33312e3238334c302e3238392c32332e3660dc8201527f37394c302e3238382c32332e3637394c322e3637372c31362e3232364c322e3660fc8201527f392c31362e3232324c322e3637372c31362e3232364c312e3039382c31342e3361011c8201527f36394c312e3738352c31332e3837344c302e3638362c31322e3837314c312e3561013c8201527f32342c31322e32314c302e3432352c31312e3337324c312e3135332c31302e3861015c8201527f32324c2d302c352e3231314c312e37332c304c312e37332c304c31322e38363661017c8201527f2c342e3136364c31322e3836362c342e3136374c32322e3133342c342e31363761019c8201527f4c32322e3133342c342e3136364c33332e32372c304c33352c352e3231314c336101bc8201527f332e3834372c31302e3832324c33342e3537352c31312e3337324c33332e34376101dc8201527f362c31322e32314c33342e3331342c31322e3837314c33332e3231352c31332e6101fc8201527f3837344c33332e3930322c31342e3336394c33322e3332332c31362e3232364c61021c8201527f33322e3330322c31362e32324c33322e3332322c31362e3232364c33342e373261023c8201527f352c32332e3637394c33322e3530312c33312e3238334c32342e3731352c323961025c8201527f2e3133384c32342e3731352c32392e3133374c32342e3731342c32392e31333761027c8201527f4c32332e3230352c33302e3337344c32302e3132392c33322e3530364c31342e61029c8201527f38372c33322e3530364c31312e3739352c33302e3337344c31302e3238362c326102bc8201527f392e3133395a4d31342e3931322c32392e3630344c31342e3538322c32392e396102dc8201527f30374c31342e3931322c32392e3630344c31342e3538322c32392e3930374c316102fc8201527f342e3931322c32392e3630345a4d32302e3038382c32392e3630344c32302e3761031c8201527f37342c32392e3836344c32302e3038382c32392e3630345a4d32302e3038382c61033c8201527f32392e3630344c32302e30362c32362e3836394c31392e3430312c32362e343161035c8201527f354c31392e3430322c32362e3431334c31392e3431362c32302e3235354c323061037c8201527f2e3330382c32312e3732354c31392e3431362c32302e3235354c31392e35393461039c8201527f2c31372e3735324c32372e33312c31372e3430384c32372e33312c31372e34306103bc8201527f384c31392e3539342c31372e3735314c31392e3539352c31372e3733364c31396103dc8201527f2e3431352c32302e3235354c31392e3430312c32362e3431354c31352e3539386103fc8201527f2c32362e3431354c31352e3539382c32362e3431344c31352e3434332c32312e61041c8201527f3735374c31352e3430362c31372e3735334c31352e3434332c32312e3735374c61043c8201527f31332e3535322c31392e3333334c31302e38322c32302e3538354c31352e343461045c8201527f332c32312e3735374c31352e3539382c32362e3431354c31342e3933392c323661047c8201527f2e3836394c31342e3931312c32392e3630344c32302e3038382c32392e36303461049c8201527f5a4d32342e3731362c32392e3133374c32382e3335342c32332e3637394c32346104bc8201527f2e3731362c32392e3133375a4d32302e3036312c32362e3836384332302e30366104dc8201527f312c32362e3836382032302e3934372c32362e3137352032312e3833342c32356104fc8201527f2e3438324332322e37322c32342e3738392032342e30372c32332e373333203261051c8201527f342e30372c32332e3733334c32302e3036312c32362e3836385a4d372e36383961053c8201527f2c31372e3430384c31302e38322c32302e3538354c372e36392c31372e34303961055c8201527f4c372e3638392c31372e3430385a4d31302e38322c32302e3538354331302e3861057c8201527f322c32302e3538352031322e31362c32302e3937332031302e38322c32302e3561059c8201527f383543392e3833382c32302e3330312031302e38332c32302e3538382031302e6105bc8201527f38322c32302e3538354331302e3739392c32302e3537392031302e38322c32306105dc8201527f2e3538352031302e38322c32302e3538355a4d32372e33312c31372e3430384c6105fc8201527f32342e3139342c32302e3538354c32312e3434372c31392e3333334c32302e3361061c8201527f30382c32312e3732364c32342e3139332c32302e3538354c32342e30372c323361063c8201527f2e3733334c32342e3139342c32302e3538354c32372e33312c31372e3430385a61065c8201527f4d372e3638392c31372e3430384c31352e3430362c31372e3735324c31352e3461067c8201527f30362c31372e3735314c372e3638392c31372e3430384c372e3638392c31372e61069c8201527f3430385a22207374796c653d2266696c6c3a6e6f6e653b66696c6c2d72756c656106bc8201527f3a6e6f6e7a65726f3b7374726f6b653a626c61636b3b7374726f6b652d7769646106dc8201527f74683a302e3570783b222f3e3c2f673e000000000000000000000000000000006106fc820152651e17b9bb339f60d11b61070c820152600061071282016105df565b7f7b226e616d65223a220000000000000000000000000000000000000000000000815260008651612a81816009850160208b0161548d565b7f222c226465736372697074696f6e223a220000000000000000000000000000006009918401918201528651612abe81601a840160208b0161548d565b61088b60f21b601a92909101918201527f2261747472696275746573223a5b7b2274726169745f74797065223a22546963601c8201527f6b65742054797065222c202276616c7565223a22000000000000000000000000603c8201528551612b2d816050840160208a0161548d565b7f227d5d2c00000000000000000000000000000000000000000000000000000000910160508101919091527f226f776e6572223a2200000000000000000000000000000000000000000000006054820152612c0a612be1612bdb612ba6612b98605d86015b8a612152565b61088b60f21b815260020190565b7f22696d616765223a22646174613a696d6167652f7376672b786d6c3b626173658152620d8d0b60ea1b602082015260230190565b86612152565b7f227d000000000000000000000000000000000000000000000000000000000000815260020190565b98975050505050505050565b7f3c672069643d22746f7022207472616e73666f726d3d226d617472697828302e81527f39393738342c302c302c312c322e3837373637652d31382c3029223e3c70617460208201527f6820636c6173733d220000000000000000000000000000000000000000000000604082015260008451612c9a81604985016020890161548d565b7f2220643d224d33302c3230304c32302c3230304332302c3138382e39363220316049918401918201527f312e3033382c31383020302c3138304c302c31352e33363843302c362e38383660698201527f20362e3838362c302031352e3336382c304c3238352e3238312c30433239332e60898201527f3736332c30203330302e3634392c362e383836203330302e3634392c31352e3360a98201527f36384c3330302e3634392c3138302e3033334c3330302c313830433238382e3960c98201527f36322c313830203238302c3138382e393632203238302c3230304c3237302c3260e98201527f30304c3237302c3139394c3236342e39392c3139394c3236342e39392c3230306101098201527f4c3236302e3938312c3230304c3236302e3938312c3139394c3235352e3937316101298201527f2c3139394c3235352e3937312c3230304c3235312e3936322c3230304c3235316101498201527f2e3936322c3139394c3234362e3935322c3139394c3234362e3935322c3230306101698201527f4c3234322e3934342c3230304c3234322e3934342c3139394c3233372e3933336101898201527f2c3139394c3233372e3933332c3230304c3233332e3932352c3230304c3233336101a98201527f2e3932352c3139394c3232382e3931342c3139394c3232382e3931342c3230306101c98201527f4c3232342e3930362c3230304c3232342e3930362c3139394c3231392e3839366101e98201527f2c3139394c3231392e3839362c3230304c3231352e3838372c3230304c3231356102098201527f2e3838372c3139394c3231302e3837372c3139394c3231302e3837372c3230306102298201527f4c3230362e3336372c3230304c3230362e3336372c3139394c3230312e3335376102498201527f2c3139394c3230312e3335372c3230304c3139372e3334392c3230304c3139376102698201527f2e3334392c3139394c3139322e3333382c3139394c3139322e3333382c3230306102898201527f4c3138382e33332c3230304c3138382e33332c3139394c3138332e3331392c316102a98201527f39394c3138332e3331392c3230304c3137392e3331312c3230304c3137392e336102c98201527f31312c3139394c3137342e3330312c3139394c3137342e3330312c3230304c316102e98201527f37302e3239322c3230304c3137302e3239322c3139394c3136352e3238322c316103098201527f39394c3136352e3238322c3230304c3136312e3237332c3230304c3136312e326103298201527f37332c3139394c3135362e3236332c3139394c3135362e3236332c3230304c316103498201527f35322e3235352c3230304c3135322e3235352c3139394c3134372e3234342c316103698201527f39394c3134372e3234342c3230304c3134332e3233362c3230304c3134332e326103898201527f33362c3139394c3133382e3232352c3139394c3133382e3232352c3230304c316103a98201527f33342e3231372c3230304c3133342e3231372c3139394c3132392e3230372c316103c98201527f39394c3132392e3230372c3230304c3132352e3139382c3230304c3132352e316103e98201527f39382c3139394c3132302e3138382c3139394c3132302e3138382c3230304c316104098201527f31362e31382c3230304c3131362e31382c3139394c3131312e3136392c3139396104298201527f4c3131312e3136392c3230304c3130372e3136312c3230304c3130372e3136316104498201527f2c3139394c3130322e31352c3139394c3130322e31352c3230304c39382e31346104698201527f322c3230304c39382e3134322c3139394c39332e3133322c3139394c39332e316104898201527f33322c3230304c38392e3132332c3230304c38392e3132332c3139394c38342e6104a98201527f3131332c3139394c38342e3131332c3230304c38302e3130342c3230304c38306104c98201527f2e3130342c3139394c37352e3039342c3139394c37352e3039342c3230304c376104e98201527f312e3038362c3230304c37312e3038362c3139394c36362e3037352c3139394c6105098201527f36362e3037352c3230304c36322e3036372c3230304c36322e3036372c3139396105298201527f4c35372e3035362c3139394c35372e3035362c3230304c35332e3034382c32306105498201527f304c35332e3034382c3139394c34382e3033382c3139394c34382e3033382c326105698201527f30304c34342e3032392c3230304c34342e3032392c3139394c33392e3031392c6105898201527f3139394c33392e3031392c3230304c33352e30312c3230304c33352e30312c316105a98201527f39394c33302c3139394c33302c3230305a22202f3e3c2f673e000000000000006105c98201526143dd6135686134786135626134a1826134726105e288017f3c672069643d227469636b65744e756d62657222207472616e73666f726d3d2281527f6d617472697828302e3735393435392c302c302c302e3735393435392c2d393760208201527f2e313432382c2d312e383436303929223e3c7465787420783d2233393270782260408201527f20793d2232303870782220746578742d616c69676e3d22656e642220636c617360608201527f733d22733120733222207374796c653d22666f6e742d73697a653a333670783b60808201527f223e23000000000000000000000000000000000000000000000000000000000060a082015260a30190565b8b612152565b7f3c2f746578743e3c2f673e0000000000000000000000000000000000000000008152600b0190565b7f3c672069643d22646174655465787422207472616e73666f726d3d226d61747281527f697828302e3935353631352c302c302c302e3839313430342c2d302e3839303360208201527f37382c2d35382e3336363829223e3c7465787420783d22323470782220793d2260408201527f32343070782220636c6173733d22733420733522207374796c653d22666f6e7460608201527f2d73697a653a333070783b223e313020444543202f2000000000000000000000608082015260960190565b87612152565b7f3c672069643d226576656e7422207472616e73666f726d3d226d61747269782881527f312e30363330352c302c302c312e30363330352c2d3133302e3633362c2d363360208201527f2e3830383229223e3c706174682069643d223031462220643d224d3134322e3560408201527f31382c38372e3334324c3137332e3838312c38372e3334324c3137332e38383160608201527f2c39382e3131394c3135342e3337332c39382e3131394c3135342e3337332c3160808201527f31392e3133364c3136392e3637382c3131392e3133364c3136392e3637382c3160a08201527f32392e3931344c3135342e3337332c3132392e3931344c3135342e3337332c3160c08201527f36322e3738364c3134322e3531382c3136322e3738364c3134322e3531382c3860e08201527f372e3334325a2220636c6173733d22733222207374796c653d2266696c6c2d726101008201527f756c653a6e6f6e7a65726f3b222f3e3c706174682069643d2230324f2220643d6101208201527f224d3139362e37332c3136332e383634433139302e39312c3136332e383634206101408201527f3138362e3435352c3136322e323132203138332e3336362c3135382e393036436101608201527f3138302e3237362c3135352e363031203137382e3733312c3135302e393331206101808201527f3137382e3733312c3134342e3839354c3137382e3733312c3130352e323333436101a08201527f3137382e3733312c39392e313937203138302e3237362c39342e3532372031386101c08201527f332e3336362c39312e323232433138362e3435352c38372e393136203139302e6101e08201527f39312c38362e323634203139362e37332c38362e323634433230322e35352c386102008201527f362e323634203230372e3030352c38372e393136203231302e3039352c39312e6102208201527f323232433231332e3138342c39342e353237203231342e3732392c39392e31396102408201527f37203231342e3732392c3130352e3233334c3231342e3732392c3134342e38396102608201527f35433231342e3732392c3135302e393331203231332e3138342c3135352e36306102808201527f31203231302e3039352c3135382e393036433230372e3030352c3136322e32316102a08201527f32203230322e35352c3136332e383634203139362e37332c3136332e3836345a6102c08201527f4d3139362e37332c3135332e303836433230302e3832362c3135332e303836206102e08201527f3230322e3837332c3135302e363037203230322e3837332c3134352e36354c326103008201527f30322e3837332c3130342e343738433230322e3837332c39392e3532312032306103208201527f302e3832362c39372e303432203139362e37332c39372e303432433139322e366103408201527f33342c39372e303432203139302e3538372c39392e353231203139302e3538376103608201527f2c3130342e3437384c3139302e3538372c3134352e3635433139302e3538372c6103808201527f3135302e363037203139322e3633342c3135332e303836203139362e37332c316103a08201527f35332e3038365a2220636c6173733d22733222207374796c653d2266696c6c2d6103c08201527f72756c653a6e6f6e7a65726f3b222f3e3c706174682069643d223033582220646103e08201527f3d224d3233312e3433352c3132342e3230324c3231382e3339332c38372e33346104008201527f324c3233302e3839362c38372e3334324c3233382e3837312c3131312e374c326104208201527f33392e3038372c3131312e374c3234372e3237382c38372e3334324c3235382e6104408201527f3438372c38372e3334324c3234352e3434362c3132342e3230324c3235392e316104608201527f33342c3136322e3738364c3234362e3633312c3136322e3738364c3233382e306104808201527f30392c3133362e3438394c3233372e3739342c3133362e3438394c3232382e396104a08201527f35362c3136322e3738364c3231372e3734372c3136322e3738364c3233312e346104c08201527f33352c3132342e3230325a2220636c6173733d22733222207374796c653d22666104e08201527f696c6c2d72756c653a6e6f6e7a65726f3b222f3e3c706174682069643d2230346105008201527f432220643d224d3237392e3731392c3136332e383634433237342e3034332c316105208201527f36332e383634203236392e3731342c3136322e323438203236362e3733322c316105408201527f35392e303134433236332e37352c3135352e373831203236322e3235392c31356105608201527f312e323138203236322e3235392c3134352e3332364c3236322e3235392c31306105808201527f342e383032433236322e3235392c39382e3931203236332e37352c39342e33346105a08201527f37203236362e3733322c39312e313134433236392e3731342c38372e383820326105c08201527f37342e3034332c38362e323634203237392e3731392c38362e323634433238356105e08201527f2e3339362c38362e323634203238392e3732352c38372e3838203239322e37306106008201527f372c39312e313134433239352e3638392c39342e333437203239372e3137392c6106208201527f39382e3931203239372e3137392c3130342e3830324c3239372e3137392c31316106408201527f322e3737374c3238352e3937312c3131322e3737374c3238352e3937312c31306106608201527f342e303437433238352e3937312c39392e333737203238332e3939352c39372e6106808201527f303432203238302e3034332c39372e303432433237362e3039312c39372e30346106a08201527f32203237342e3131352c39392e333737203237342e3131352c3130342e3034376106c08201527f4c3237342e3131352c3134362e313839433237342e3131352c3135302e3738376106e08201527f203237362e3039312c3135332e303836203238302e3034332c3135332e3038366107008201527f433238332e3939352c3135332e303836203238352e3937312c3135302e3738376107208201527f203238352e3937312c3134362e3138394c3238352e3937312c3133342e3635366107408201527f4c3239372e3137392c3133342e3635364c3239372e3137392c3134352e3332366107608201527f433239372e3137392c3135312e323138203239352e3638392c3135352e3738316107808201527f203239322e3730372c3135392e303134433238392e3732352c3136322e3234386107a08201527f203238352e3339362c3136332e383634203237392e3731392c3136332e3836346107c08201527f5a2220636c6173733d22733222207374796c653d2266696c6c2d72756c653a6e6107e08201527f6f6e7a65726f3b222f3e3c706174682069643d2230354f2220643d224d3332316108008201527f2e3634352c3136332e383634433331352e3832352c3136332e383634203331316108208201527f2e33372c3136322e323132203330382e3238312c3135382e393036433330352e6108408201527f3139312c3135352e363031203330332e3634362c3135302e393331203330332e6108608201527f3634362c3134342e3839354c3330332e3634362c3130352e323333433330332e6108808201527f3634362c39392e313937203330352e3139312c39342e353237203330382e32386108a08201527f312c39312e323232433331312e33372c38372e393136203331352e3832352c386108c08201527f362e323634203332312e3634352c38362e323634433332372e3436352c38362e6108e08201527f323634203333312e39322c38372e393136203333352e30312c39312e323232436109008201527f3333382e3039392c39342e353237203333392e3634342c39392e3139372033336109208201527f392e3634342c3130352e3233334c3333392e3634342c3134342e3839354333336109408201527f392e3634342c3135302e393331203333382e3039392c3135352e3630312033336109608201527f352e30312c3135382e393036433333312e39322c3136322e323132203332372e6109808201527f3436352c3136332e383634203332312e3634352c3136332e3836345a4d3332316109a08201527f2e3634352c3135332e303836433332352e3734312c3135332e303836203332376109c08201527f2e3738392c3135302e363037203332372e3738392c3134352e36354c3332372e6109e08201527f3738392c3130342e343738433332372e3738392c39392e353231203332352e37610a008201527f34312c39372e303432203332312e3634352c39372e303432433331372e35352c610a208201527f39372e303432203331352e3530322c39392e353231203331352e3530322c3130610a408201527f342e3437384c3331352e3530322c3134352e3635433331352e3530322c313530610a608201527f2e363037203331372e35352c3135332e303836203332312e3634352c3135332e610a808201527f3038365a2220636c6173733d22733222207374796c653d2266696c6c2d72756c610aa08201527f653a6e6f6e7a65726f3b222f3e3c706174682069643d2230364e2220643d224d610ac08201527f3334372e36322c38372e3334324c3336322e3439332c38372e3334324c333734610ae08201527f2e3032352c3133322e3530314c3337342e3234312c3133322e3530314c333734610b008201527f2e3234312c38372e3334324c3338342e3830332c38372e3334324c3338342e38610b208201527f30332c3136322e3738364c3337322e3632342c3136322e3738364c3335382e33610b408201527f39382c3130372e3731324c3335382e3138322c3130372e3731324c3335382e31610b608201527f38322c3136322e3738364c3334372e36322c3136322e3738364c3334372e3632610b808201527f2c38372e3334325a2220636c6173733d22733222207374796c653d2266696c6c610ba08201527f2d72756c653a6e6f6e7a65726f3b222f3e3c2f673e0000000000000000000000610bc0820152610bd50190565b9695505050505050565b7f3c672069643d22737475623122207472616e73666f726d3d226d61747269782881527f312e31333537342c302c302c312c2d33322e373336352c302e3230343138322960208201527f223e3c7061746820636c6173733d22000000000000000000000000000000000060408201526000845161446b81604f85016020890161548d565b7f2220643d224d3236362e30342c3139392e3739364c3237342e3832362c313939604f918401918201527f2e373936433237342e3832362c3231302e383334203238322e372c3231392e37606f8201527f3936203239322e3339382c3231392e3739364c3239322e3936382c3231392e37608f8201527f36334c3239322e3936382c3238342e343238433239322e3936382c3239322e3960af8201527f31203238362e3931382c3239392e373936203237392e3436362c3239392e373960cf8201527f364c34322e3332362c3239392e3739364333342e3837342c3239392e3739362060ef8201527f32382e3832342c3239322e39312032382e3832342c3238342e3432384c32382e61010f8201527f3832342c3231392e3739364333382e3532322c3231392e3739362034362e333961012f8201527f352c3231302e3833342034362e3339352c3139392e3739364c35352e3138312c61014f8201527f3139392e3739364c35352e3138312c3230302e3739364c35392e3538332c323061016f8201527f302e3739364c35392e3538332c3139392e3739364c36332e3130352c3139392e61018f8201527f3739364c36332e3130352c3230302e3739364c36372e3530372c3230302e37396101af8201527f364c36372e3530372c3139392e3739364c37312e3032392c3139392e3739364c6101cf8201527f37312e3032392c3230302e3739364c37352e3433312c3230302e3739364c37356101ef8201527f2e3433312c3139392e3739364c37382e3935322c3139392e3739364c37382e3961020f8201527f35322c3230302e3739364c38332e3335342c3230302e3739364c38332e33353461022f8201527f2c3139392e3739364c38362e3837362c3139392e3739364c38362e3837362c3261024f8201527f30302e3739364c39312e3237382c3230302e3739364c39312e3237382c31393961026f8201527f2e3739364c39342e382c3139392e3739364c39342e382c3230302e3739364c3961028f8201527f392e3230322c3230302e3739364c39392e3230322c3139392e3739364c3130326102af8201527f2e3732342c3139392e3739364c3130322e3732342c3230302e3739364c3130376102cf8201527f2e3132362c3230302e3739364c3130372e3132362c3139392e3739364c3131306102ef8201527f2e3634372c3139392e3739364c3131302e3634372c3230302e3739364c31313561030f8201527f2e3034392c3230302e3739364c3131352e3034392c3139392e3739364c31313861032f8201527f2e3537312c3139392e3739364c3131382e3537312c3230302e3739364c31323261034f8201527f2e3937332c3230302e3739364c3132322e3937332c3139392e3739364c31323661036f8201527f2e3439352c3139392e3739364c3132362e3439352c3230302e3739364c31333061038f8201527f2e3839372c3230302e3739364c3133302e3839372c3139392e3739364c3133346103af8201527f2e3431382c3139392e3739364c3133342e3431382c3230302e3739364c3133386103cf8201527f2e3832312c3230302e3739364c3133382e3832312c3139392e3739364c3134326103ef8201527f2e3334322c3139392e3739364c3134322e3334322c3230302e3739364c31343661040f8201527f2e3734342c3230302e3739364c3134362e3734342c3139392e3739364c31353061042f8201527f2e3236362c3139392e3739364c3135302e3236362c3230302e3739364c31353461044f8201527f2e3636382c3230302e3739364c3135342e3636382c3139392e3739364c31353861046f8201527f2e31392c3139392e3739364c3135382e31392c3230302e3739364c3136322e3561048f8201527f39322c3230302e3739364c3136322e3539322c3139392e3739364c3136362e316104af8201527f31332c3139392e3739364c3136362e3131332c3230302e3739364c3137302e356104cf8201527f31352c3230302e3739364c3137302e3531352c3139392e3739364c3137342e306104ef8201527f33372c3139392e3739364c3137342e3033372c3230302e3739364c3137382e3461050f8201527f33392c3230302e3739364c3137382e3433392c3139392e3739364c3138312e3961052f8201527f36312c3139392e3739364c3138312e3936312c3230302e3739364c3138362e3361054f8201527f36332c3230302e3739364c3138362e3336332c3139392e3739364c3138392e3861056f8201527f38352c3139392e3739364c3138392e3838352c3230302e3739364c3139342e3261058f8201527f38372c3230302e3739364c3139342e3238372c3139392e3739364c3139372e386105af8201527f30382c3139392e3739364c3139372e3830382c3230302e3739364c3230322e326105cf8201527f312c3230302e3739364c3230322e32312c3139392e3739364c3230352e3733326105ef8201527f2c3139392e3739364c3230352e3733322c3230302e3739364c3231302e31333461060f8201527f2c3230302e3739364c3231302e3133342c3139392e3739364c3231342e30393661062f8201527f2c3139392e3739364c3231342e3039362c3230302e3739364c3231382e34393861064f8201527f2c3230302e3739364c3231382e3439382c3139392e3739364c3232322e30322c61066f8201527f3139392e3739364c3232322e30322c3230302e3739364c3232362e3432322c3261068f8201527f30302e3739364c3232362e3432322c3139392e3739364c3232392e3934332c316106af8201527f39392e3739364c3232392e3934332c3230302e3739364c3233342e3334352c326106cf8201527f30302e3739364c3233342e3334352c3139392e3739364c3233372e3836372c316106ef8201527f39392e3739364c3233372e3836372c3230302e3739364c3234322e3236392c3261070f8201527f30302e3739364c3234322e3236392c3139392e3739364c3234352e3739312c3161072f8201527f39392e3739364c3234352e3739312c3230302e3739364c3235302e3139332c3261074f8201527f30302e3739364c3235302e3139332c3139392e3739364c3235332e3731342c3161076f8201527f39392e3739364c3235332e3731342c3230302e3739364c3235382e3131372c3261078f8201527f30302e3739364c3235382e3131372c3139392e3739364c3236312e3633382c316107af8201527f39392e3739364c3236312e3633382c3230302e3739364c3236362e30342c32306107cf8201527f302e3739364c3236362e30342c3139392e3739365a22202f3e3c2f673e0000006107ef8201526143dd613478612bdb614e8b82612b9261080c87017f3c672069643d22737475623222207472616e73666f726d3d226d61747269782881527f302e3438393630312c302c302c302e3438393630312c33362e333631362c333460208201527f2e3536313329223e3c7465787420783d22373870782220793d2234353570782260408201527f20636c6173733d227331207333207335223e2300000000000000000000000000606082015260730190565b7f3c672069643d22737475623322207472616e73666f726d3d226d61747269782881527f302e3136303636372c302c302c302e3136303636372c36362e313531312c323160208201527f322e39313129223e3c7465787420783d22363270782220793d2234313070782260408201527f20636c6173733d227331207333207332223e0000000000000000000000000000606082015260720190565b7f7b226e616d65223a22466f78636f6e32303232222c000000000000000000000081527f226465736372697074696f6e223a22466f78636f6e323032322069732074686560158201527f206d6f7374207072656d69657220666f78206576656e7420696e20746865207360358201527f6f6c61722073797374656d207468697320796561722e204a6f696e206672696560558201527f6e64732066726f6d20616c6c206f7665722074686520776f726c64207468697360758201527f20446563656d6265722061732074686520736b756c6b2064657363656e64206f60958201527f6e20746865205765623320737061636520616e6420646967207468656972207060b58201527f61777320696e746f2065766572797468696e6720457468657265756d2e20537460d58201527f617920666f78792c20796f7572204e465420707572636861736520697320796f60f58201527f7572207469636b657420746f20746865206576656e7421222c000000000000006101158201527f22696d616765223a22646174613a696d6167652f7376672b786d6c3b6261736561012e820152620d8d0b60ea1b61014e8201526000610151820183516150eb81836020880161548d565b6151408183017f222c2265787465726e616c5f6c696e6b223a202268747470733a2f2f6d65746181527f6d61736b2e696f227d0000000000000000000000000000000000000000000000602082015260290190565b95945050505050565b7f3c737667207072657365727665417370656374526174696f3d22784d696e594d81527f696e206d656574222076696577426f783d22302030203330302033303022207860208201527f6d6c6e733d22687474703a2f2f7777772e77332e6f72672f323030302f73766760408201527f22207374796c653d2266696c6c2d72756c653a6576656e6f64643b636c69702d60608201527f72756c653a6576656e6f64643b757365722d73656c6563743a206e6f6e653b2260808201527f3e0000000000000000000000000000000000000000000000000000000000000060a08201526000835161523f8160a185016020880161548d565b8351908301906152568160a184016020880161548d565b7f3c7374796c653e2e73317b666f6e742d66616d696c793a2242616c6f6f446132910160a18101919091527f2d4578747261426f6c64223b7d202e73347b666f6e742d66616d696c793a224260c18201527f616c6f6f4461322d526567756c6172223b7d202e73337b666f6e742d73697a6560e18201527f3a31303870783b7d202e73357b66696c6c3a234646463b7d202e73327b66696c6101018201527f6c3a234646393230303b7d202e73367b66696c6c3a233343334333433b7d202e6101218201527f73377b66696c6c3a233533323737353b7d3c2f7374796c653e00000000000000610141820152651e17b9bb339f60d11b61015a8201526101608101615140565b7f646174613a6170706c69636174696f6e2f6a736f6e3b6261736536342c00000081526000825161539481601d85016020870161548d565b91909101601d0192915050565b7f5469636b657420230000000000000000000000000000000000000000000000008152600082516153d981600885016020870161548d565b9190910160080192915050565b60006001600160a01b038087168352808616602084015250836040830152608060608301526143dd6080830184612126565b602081526000611f2a6020830184612126565b6000821982111561543e5761543e61555c565b500190565b60008261545257615452615572565b500490565b60008160001904831182151516156154715761547161555c565b500290565b6000828210156154885761548861555c565b500390565b60005b838110156154a8578181015183820152602001615490565b83811115610b165750506000910152565b6000816154c8576154c861555c565b506000190190565b600181811c908216806154e457607f821691505b6020821081141561550557634e487b7160e01b600052602260045260246000fd5b50919050565b600061ffff808316818114156155235761552361555c565b6001019392505050565b60006000198214156155415761554161555c565b5060010190565b60008261555757615557615572565b500690565b634e487b7160e01b600052601160045260246000fd5b634e487b7160e01b600052601260045260246000fd5b634e487b7160e01b600052604160045260246000fd5b6001600160e01b03198116811461101457600080fdfe4142434445464748494a4b4c4d4e4f505152535455565758595a6162636465666768696a6b6c6d6e6f707172737475767778797a303132333435363738392b2fa26469706673582212206d7c645972ee908a3dd3663fea0c7d72d192a05c01e54f5634c5344b8ac51c8164736f6c63430008040033",
  "immutableReferences": {},
  "source": "// SPDX-License-Identifier: MIT\npragma solidity ^0.8.4;\n\nimport \"@openzeppelin/contracts/token/ERC721/ERC721.sol\";\nimport \"@openzeppelin/contracts/utils/Counters.sol\";\nimport \"@openzeppelin/contracts/access/Ownable.sol\";\nimport \"@openzeppelin/contracts/utils/Strings.sol\";\nimport 'base64-sol/base64.sol';\n\nimport './HexStrings.sol';\n\n/* \n  visibility modifiers\n  ------------------------------------------------------\n  public: anyone can call\n  private: only this contract\n  internal: only this contract and inheriting contracts\n  external: only external calls (not this contract)\n*/\n\ncontract Foxcon2022 is ERC721, Ownable {\n  using Strings for uint256;\n  using HexStrings for uint160;\n  using Counters for Counters.Counter;\n  Counters.Counter private _tokenIds;\n\n  uint16 _myTotalSupply = 0; // max value 65,535\n  uint16 public MAX_SUPPLY = 8999; // max value 65,535\n  uint256 public constant vipTicketPrice = 50000000000000000; //0.05 ETH\n  uint256 public constant gaTicketPrice = 30000000000000000; //0.03 ETH\n  mapping (uint256 => bool) public gaTicketHolders;\n  mapping (uint256 => bool) public vipTicketHolders;\n\n  constructor() ERC721(\"Foxcon2022\", \"FXC22\") {\n    _tokenIds._value = 999;\n  }\n\n  mapping (uint256 => bytes3) public color;\n  uint256 mintDeadline = block.timestamp + 24 hours;\n\n  function totalSupply() view public returns(uint256) {\n    return _myTotalSupply;\n  }\n\n  function contractURI() public pure returns (string memory) {\n    string memory image = Base64.encode(bytes(generateCollectionSvg()));\n\n    bytes memory collectionJsonString = bytes(abi.encodePacked(\n      '{\"name\":\"Foxcon2022\",',\n      '\"description\":\"Foxcon2022 is the most premier fox event in the solar system this year. Join friends from all over the world this December as the skulk descend on the Web3 space and dig their paws into everything Ethereum. Stay foxy, your NFT purchase is your ticket to the event!\",', \n      '\"image\":\"data:image/svg+xml;base64,',image,'\",'\n      '\"external_link\": \"https://metamask.io\"}'\n    ));\n\n    return string(\n      abi.encodePacked(\n        'data:application/json;base64,',\n        Base64.encode(bytes(abi.encodePacked(collectionJsonString)))\n      )\n    );\n  }\n\n  function generateCollectionSvg() internal pure returns (string memory) {\n    return string(abi.encodePacked(\n      '<svg width=\"100%\" height=\"100%\" viewBox=\"0 0 35 33\" version=\"1.1\" xmlns=\"http://www.w3.org/2000/svg\" style=\"fill-rule:evenodd;clip-rule:evenodd;stroke-linejoin:round;stroke-miterlimit:2;\">',\n        '<g><path d=\"M10.286,29.139L10.285,29.138L2.499,31.283L0.289,23.679L0.288,23.679L2.677,16.226L2.69,16.222L2.677,16.226L1.098,14.369L1.785,13.874L0.686,12.871L1.524,12.21L0.425,11.372L1.153,10.822L-0,5.211L1.73,0L1.73,0L12.866,4.166L12.866,4.167L22.134,4.167L22.134,4.166L33.27,0L35,5.211L33.847,10.822L34.575,11.372L33.476,12.21L34.314,12.871L33.215,13.874L33.902,14.369L32.323,16.226L32.302,16.22L32.322,16.226L34.725,23.679L32.501,31.283L24.715,29.138L24.715,29.137L24.714,29.137L23.205,30.374L20.129,32.506L14.87,32.506L11.795,30.374L10.286,29.139ZM14.912,29.604L14.582,29.907L14.912,29.604L14.582,29.907L14.912,29.604ZM20.088,29.604L20.774,29.864L20.088,29.604ZM20.088,29.604L20.06,26.869L19.401,26.415L19.402,26.413L19.416,20.255L20.308,21.725L19.416,20.255L19.594,17.752L27.31,17.408L27.31,17.408L19.594,17.751L19.595,17.736L19.415,20.255L19.401,26.415L15.598,26.415L15.598,26.414L15.443,21.757L15.406,17.753L15.443,21.757L13.552,19.333L10.82,20.585L15.443,21.757L15.598,26.415L14.939,26.869L14.911,29.604L20.088,29.604ZM24.716,29.137L28.354,23.679L24.716,29.137ZM20.061,26.868C20.061,26.868 20.947,26.175 21.834,25.482C22.72,24.789 24.07,23.733 24.07,23.733L20.061,26.868ZM7.689,17.408L10.82,20.585L7.69,17.409L7.689,17.408ZM10.82,20.585C10.82,20.585 12.16,20.973 10.82,20.585C9.838,20.301 10.83,20.588 10.82,20.585C10.799,20.579 10.82,20.585 10.82,20.585ZM27.31,17.408L24.194,20.585L21.447,19.333L20.308,21.726L24.193,20.585L24.07,23.733L24.194,20.585L27.31,17.408ZM7.689,17.408L15.406,17.752L15.406,17.751L7.689,17.408L7.689,17.408Z\" style=\"fill:none;fill-rule:nonzero;stroke:black;stroke-width:0.5px;\"/></g>',\n      '</svg>'\n    ));\n  }\n\n  modifier canMint() {\n    require(_myTotalSupply < MAX_SUPPLY, 'Purchase would exceed max supply of Tickets');\n    require(block.timestamp < mintDeadline, 'DONE MINTING');\n    require(vipTicketPrice == msg.value || gaTicketPrice == msg.value, \"Ether value sent is not corect\");\n    _; // Underscores used in function modifiers return and continue execution of the decorated function\n  }\n\n  function mintItem() public payable canMint returns (uint256) {\n    // canMint happens first or throws\n\n    _tokenIds.increment();\n    uint256 id = _tokenIds.current();\n    _safeMint(msg.sender, id);\n    //if(msg.value == vipTicketPrice) { vipTicketHolders[id] = true; } else { gaTicketHolders[id] = true; }\n    msg.value == vipTicketPrice ? vipTicketHolders[id] = true : gaTicketHolders[id] = true;\n    _myTotalSupply++;\n\n    return (id);\n  }\n\n  function tokenURI(uint256 id) public view override returns (string memory) {\n    require(_exists(id), \"not exist\");\n    string memory name = string(abi.encodePacked('Ticket #', id.toString() ));\n    string memory description = string(abi.encodePacked('This is an NFT fool!'));\n    string memory image = Base64.encode(bytes(generateNftSvgByTokenId(id)));\n\n    bytes memory tokenJsonString = bytes(abi.encodePacked(\n      '{\"name\":\"', name, '\",\"description\":\"',description,'\",', //'\"external_url\":\"https://dappblitz.eth/', id.toString(), '.svg\",', \n      '\"attributes\":[{\"trait_type\":\"Ticket Type\", \"value\":\"', (vipTicketHolders[id] ? \"VIP\" : \"GA\"),  '\"}],',\n      '\"owner\":\"', (uint160(ownerOf(id))).toHexString(20),'\",',\n      '\"image\":\"data:image/svg+xml;base64,',image,'\"}'\n    ));\n\n    return string(\n      abi.encodePacked(\n        'data:application/json;base64,',\n        Base64.encode(tokenJsonString)\n      )\n    );\n  }\n\n  function generateNftSvgByTokenId(uint256 id) internal view returns (string memory) {\n    return string(abi.encodePacked(\n      '<svg preserveAspectRatio=\"xMinYMin meet\" viewBox=\"0 0 300 300\" xmlns=\"http://www.w3.org/2000/svg\" style=\"fill-rule:evenodd;clip-rule:evenodd;user-select: none;\">',\n        renderNftSvgBottomById(id),\n        renderNftSvgTopById(id),\n        '<style>.s1{font-family:\"BalooDa2-ExtraBold\";} .s4{font-family:\"BalooDa2-Regular\";} .s3{font-size:108px;} .s5{fill:#FFF;} .s2{fill:#FF9200;} .s6{fill:#3C3C3C;} .s7{fill:#532775;}</style>',\n      '</svg>'\n    ));\n  }\n\n  function renderNftSvgTopById(uint256 id) internal view returns (string memory) {\n    return string(abi.encodePacked(\n      '<g id=\"top\" transform=\"matrix(0.99784,0,0,1,2.87767e-18,0)\"><path class=\"',(vipTicketHolders[id] ? \"s6\" : \"s7\"), '\" d=\"M30,200L20,200C20,188.962 11.038,180 0,180L0,15.368C0,6.886 6.886,0 15.368,0L285.281,0C293.763,0 300.649,6.886 300.649,15.368L300.649,180.033L300,180C288.962,180 280,188.962 280,200L270,200L270,199L264.99,199L264.99,200L260.981,200L260.981,199L255.971,199L255.971,200L251.962,200L251.962,199L246.952,199L246.952,200L242.944,200L242.944,199L237.933,199L237.933,200L233.925,200L233.925,199L228.914,199L228.914,200L224.906,200L224.906,199L219.896,199L219.896,200L215.887,200L215.887,199L210.877,199L210.877,200L206.367,200L206.367,199L201.357,199L201.357,200L197.349,200L197.349,199L192.338,199L192.338,200L188.33,200L188.33,199L183.319,199L183.319,200L179.311,200L179.311,199L174.301,199L174.301,200L170.292,200L170.292,199L165.282,199L165.282,200L161.273,200L161.273,199L156.263,199L156.263,200L152.255,200L152.255,199L147.244,199L147.244,200L143.236,200L143.236,199L138.225,199L138.225,200L134.217,200L134.217,199L129.207,199L129.207,200L125.198,200L125.198,199L120.188,199L120.188,200L116.18,200L116.18,199L111.169,199L111.169,200L107.161,200L107.161,199L102.15,199L102.15,200L98.142,200L98.142,199L93.132,199L93.132,200L89.123,200L89.123,199L84.113,199L84.113,200L80.104,200L80.104,199L75.094,199L75.094,200L71.086,200L71.086,199L66.075,199L66.075,200L62.067,200L62.067,199L57.056,199L57.056,200L53.048,200L53.048,199L48.038,199L48.038,200L44.029,200L44.029,199L39.019,199L39.019,200L35.01,200L35.01,199L30,199L30,200Z\" /></g>',\n      '<g id=\"ticketNumber\" transform=\"matrix(0.759459,0,0,0.759459,-97.1428,-1.84609)\"><text x=\"392px\" y=\"208px\" text-align=\"end\" class=\"s1 s2\" style=\"font-size:36px;\">#',id.toString(),'</text></g>',\n      '<g id=\"dateText\" transform=\"matrix(0.955615,0,0,0.891404,-0.890378,-58.3668)\"><text x=\"24px\" y=\"240px\" class=\"s4 s5\" style=\"font-size:30px;\">10 DEC / ',(vipTicketHolders[id] ? \"VIP\" : \"GA\"),'</text></g>',\n      '<g id=\"event\" transform=\"matrix(1.06305,0,0,1.06305,-130.636,-63.8082)\"><path id=\"01F\" d=\"M142.518,87.342L173.881,87.342L173.881,98.119L154.373,98.119L154.373,119.136L169.678,119.136L169.678,129.914L154.373,129.914L154.373,162.786L142.518,162.786L142.518,87.342Z\" class=\"s2\" style=\"fill-rule:nonzero;\"/><path id=\"02O\" d=\"M196.73,163.864C190.91,163.864 186.455,162.212 183.366,158.906C180.276,155.601 178.731,150.931 178.731,144.895L178.731,105.233C178.731,99.197 180.276,94.527 183.366,91.222C186.455,87.916 190.91,86.264 196.73,86.264C202.55,86.264 207.005,87.916 210.095,91.222C213.184,94.527 214.729,99.197 214.729,105.233L214.729,144.895C214.729,150.931 213.184,155.601 210.095,158.906C207.005,162.212 202.55,163.864 196.73,163.864ZM196.73,153.086C200.826,153.086 202.873,150.607 202.873,145.65L202.873,104.478C202.873,99.521 200.826,97.042 196.73,97.042C192.634,97.042 190.587,99.521 190.587,104.478L190.587,145.65C190.587,150.607 192.634,153.086 196.73,153.086Z\" class=\"s2\" style=\"fill-rule:nonzero;\"/><path id=\"03X\" d=\"M231.435,124.202L218.393,87.342L230.896,87.342L238.871,111.7L239.087,111.7L247.278,87.342L258.487,87.342L245.446,124.202L259.134,162.786L246.631,162.786L238.009,136.489L237.794,136.489L228.956,162.786L217.747,162.786L231.435,124.202Z\" class=\"s2\" style=\"fill-rule:nonzero;\"/><path id=\"04C\" d=\"M279.719,163.864C274.043,163.864 269.714,162.248 266.732,159.014C263.75,155.781 262.259,151.218 262.259,145.326L262.259,104.802C262.259,98.91 263.75,94.347 266.732,91.114C269.714,87.88 274.043,86.264 279.719,86.264C285.396,86.264 289.725,87.88 292.707,91.114C295.689,94.347 297.179,98.91 297.179,104.802L297.179,112.777L285.971,112.777L285.971,104.047C285.971,99.377 283.995,97.042 280.043,97.042C276.091,97.042 274.115,99.377 274.115,104.047L274.115,146.189C274.115,150.787 276.091,153.086 280.043,153.086C283.995,153.086 285.971,150.787 285.971,146.189L285.971,134.656L297.179,134.656L297.179,145.326C297.179,151.218 295.689,155.781 292.707,159.014C289.725,162.248 285.396,163.864 279.719,163.864Z\" class=\"s2\" style=\"fill-rule:nonzero;\"/><path id=\"05O\" d=\"M321.645,163.864C315.825,163.864 311.37,162.212 308.281,158.906C305.191,155.601 303.646,150.931 303.646,144.895L303.646,105.233C303.646,99.197 305.191,94.527 308.281,91.222C311.37,87.916 315.825,86.264 321.645,86.264C327.465,86.264 331.92,87.916 335.01,91.222C338.099,94.527 339.644,99.197 339.644,105.233L339.644,144.895C339.644,150.931 338.099,155.601 335.01,158.906C331.92,162.212 327.465,163.864 321.645,163.864ZM321.645,153.086C325.741,153.086 327.789,150.607 327.789,145.65L327.789,104.478C327.789,99.521 325.741,97.042 321.645,97.042C317.55,97.042 315.502,99.521 315.502,104.478L315.502,145.65C315.502,150.607 317.55,153.086 321.645,153.086Z\" class=\"s2\" style=\"fill-rule:nonzero;\"/><path id=\"06N\" d=\"M347.62,87.342L362.493,87.342L374.025,132.501L374.241,132.501L374.241,87.342L384.803,87.342L384.803,162.786L372.624,162.786L358.398,107.712L358.182,107.712L358.182,162.786L347.62,162.786L347.62,87.342Z\" class=\"s2\" style=\"fill-rule:nonzero;\"/></g>'\n    ));\n  }\n\n  function renderNftSvgBottomById(uint256 id) internal view returns (string memory) {\n    string memory ticketType = vipTicketHolders[id] ? \"VIP\" : \"General Admission\";\n    return string(abi.encodePacked(\n      '<g id=\"stub1\" transform=\"matrix(1.13574,0,0,1,-32.7365,0.204182)\"><path class=\"',(vipTicketHolders[id] ? \"s6\" : \"s7\"), '\" d=\"M266.04,199.796L274.826,199.796C274.826,210.834 282.7,219.796 292.398,219.796L292.968,219.763L292.968,284.428C292.968,292.91 286.918,299.796 279.466,299.796L42.326,299.796C34.874,299.796 28.824,292.91 28.824,284.428L28.824,219.796C38.522,219.796 46.395,210.834 46.395,199.796L55.181,199.796L55.181,200.796L59.583,200.796L59.583,199.796L63.105,199.796L63.105,200.796L67.507,200.796L67.507,199.796L71.029,199.796L71.029,200.796L75.431,200.796L75.431,199.796L78.952,199.796L78.952,200.796L83.354,200.796L83.354,199.796L86.876,199.796L86.876,200.796L91.278,200.796L91.278,199.796L94.8,199.796L94.8,200.796L99.202,200.796L99.202,199.796L102.724,199.796L102.724,200.796L107.126,200.796L107.126,199.796L110.647,199.796L110.647,200.796L115.049,200.796L115.049,199.796L118.571,199.796L118.571,200.796L122.973,200.796L122.973,199.796L126.495,199.796L126.495,200.796L130.897,200.796L130.897,199.796L134.418,199.796L134.418,200.796L138.821,200.796L138.821,199.796L142.342,199.796L142.342,200.796L146.744,200.796L146.744,199.796L150.266,199.796L150.266,200.796L154.668,200.796L154.668,199.796L158.19,199.796L158.19,200.796L162.592,200.796L162.592,199.796L166.113,199.796L166.113,200.796L170.515,200.796L170.515,199.796L174.037,199.796L174.037,200.796L178.439,200.796L178.439,199.796L181.961,199.796L181.961,200.796L186.363,200.796L186.363,199.796L189.885,199.796L189.885,200.796L194.287,200.796L194.287,199.796L197.808,199.796L197.808,200.796L202.21,200.796L202.21,199.796L205.732,199.796L205.732,200.796L210.134,200.796L210.134,199.796L214.096,199.796L214.096,200.796L218.498,200.796L218.498,199.796L222.02,199.796L222.02,200.796L226.422,200.796L226.422,199.796L229.943,199.796L229.943,200.796L234.345,200.796L234.345,199.796L237.867,199.796L237.867,200.796L242.269,200.796L242.269,199.796L245.791,199.796L245.791,200.796L250.193,200.796L250.193,199.796L253.714,199.796L253.714,200.796L258.117,200.796L258.117,199.796L261.638,199.796L261.638,200.796L266.04,200.796L266.04,199.796Z\" /></g>',\n      '<g id=\"stub2\" transform=\"matrix(0.489601,0,0,0.489601,36.3616,34.5613)\"><text x=\"78px\" y=\"455px\" class=\"s1 s3 s5\">#',id.toString(),'</text></g>',\n      '<g id=\"stub3\" transform=\"matrix(0.160667,0,0,0.160667,66.1511,212.911)\"><text x=\"62px\" y=\"410px\" class=\"s1 s3 s2\">',ticketType,'</text></g>'\n    ));\n  }\n\n}",
  "sourcePath": "/Users/eric/src/github/metamask/nft-tickets-workshop/contracts/xxx.sol",
  "compiler": {
    "name": "solc",
    "version": "0.8.4+commit.c7e474f2.Emscripten.clang"
  },
  "schemaVersion": "3.4.5",
  "updatedAt": "2022-03-16T20:56:53.955Z",
  "networkType": "ethereum",
  "devdoc": {
    "kind": "dev",
    "methods": {
      "approve(address,uint256)": {
        "details": "See {IERC721-approve}."
      },
      "balanceOf(address)": {
        "details": "See {IERC721-balanceOf}."
      },
      "getApproved(uint256)": {
        "details": "See {IERC721-getApproved}."
      },
      "isApprovedForAll(address,address)": {
        "details": "See {IERC721-isApprovedForAll}."
      },
      "name()": {
        "details": "See {IERC721Metadata-name}."
      },
      "owner()": {
        "details": "Returns the address of the current owner."
      },
      "ownerOf(uint256)": {
        "details": "See {IERC721-ownerOf}."
      },
      "renounceOwnership()": {
        "details": "Leaves the contract without owner. It will not be possible to call `onlyOwner` functions anymore. Can only be called by the current owner. NOTE: Renouncing ownership will leave the contract without an owner, thereby removing any functionality that is only available to the owner."
      },
      "safeTransferFrom(address,address,uint256)": {
        "details": "See {IERC721-safeTransferFrom}."
      },
      "safeTransferFrom(address,address,uint256,bytes)": {
        "details": "See {IERC721-safeTransferFrom}."
      },
      "setApprovalForAll(address,bool)": {
        "details": "See {IERC721-setApprovalForAll}."
      },
      "supportsInterface(bytes4)": {
        "details": "See {IERC165-supportsInterface}."
      },
      "symbol()": {
        "details": "See {IERC721Metadata-symbol}."
      },
      "transferFrom(address,address,uint256)": {
        "details": "See {IERC721-transferFrom}."
      },
      "transferOwnership(address)": {
        "details": "Transfers ownership of the contract to a new account (`newOwner`). Can only be called by the current owner."
      }
    },
    "version": 1
  },
  "userdoc": {
    "kind": "user",
    "methods": {},
    "version": 1
  }
}