{
  "contractName": "Foxcon2022",
  "abi": [
    {
      "inputs": [],
      "stateMutability": "nonpayable",
      "type": "constructor"
    },
    {
      "anonymous": false,
      "inputs": [
        {
          "indexed": true,
          "internalType": "address",
          "name": "owner",
          "type": "address"
        },
        {
          "indexed": true,
          "internalType": "address",
          "name": "approved",
          "type": "address"
        },
        {
          "indexed": true,
          "internalType": "uint256",
          "name": "tokenId",
          "type": "uint256"
        }
      ],
      "name": "Approval",
      "type": "event"
    },
    {
      "anonymous": false,
      "inputs": [
        {
          "indexed": true,
          "internalType": "address",
          "name": "owner",
          "type": "address"
        },
        {
          "indexed": true,
          "internalType": "address",
          "name": "operator",
          "type": "address"
        },
        {
          "indexed": false,
          "internalType": "bool",
          "name": "approved",
          "type": "bool"
        }
      ],
      "name": "ApprovalForAll",
      "type": "event"
    },
    {
      "anonymous": false,
      "inputs": [
        {
          "indexed": true,
          "internalType": "address",
          "name": "from",
          "type": "address"
        },
        {
          "indexed": true,
          "internalType": "address",
          "name": "to",
          "type": "address"
        },
        {
          "indexed": true,
          "internalType": "uint256",
          "name": "tokenId",
          "type": "uint256"
        }
      ],
      "name": "Transfer",
      "type": "event"
    },
    {
      "inputs": [
        {
          "internalType": "address",
          "name": "to",
          "type": "address"
        },
        {
          "internalType": "uint256",
          "name": "tokenId",
          "type": "uint256"
        }
      ],
      "name": "approve",
      "outputs": [],
      "stateMutability": "nonpayable",
      "type": "function"
    },
    {
      "inputs": [
        {
          "internalType": "address",
          "name": "owner",
          "type": "address"
        }
      ],
      "name": "balanceOf",
      "outputs": [
        {
          "internalType": "uint256",
          "name": "",
          "type": "uint256"
        }
      ],
      "stateMutability": "view",
      "type": "function",
      "constant": true
    },
    {
      "inputs": [
        {
          "internalType": "uint256",
          "name": "tokenId",
          "type": "uint256"
        }
      ],
      "name": "getApproved",
      "outputs": [
        {
          "internalType": "address",
          "name": "",
          "type": "address"
        }
      ],
      "stateMutability": "view",
      "type": "function",
      "constant": true
    },
    {
      "inputs": [
        {
          "internalType": "address",
          "name": "owner",
          "type": "address"
        },
        {
          "internalType": "address",
          "name": "operator",
          "type": "address"
        }
      ],
      "name": "isApprovedForAll",
      "outputs": [
        {
          "internalType": "bool",
          "name": "",
          "type": "bool"
        }
      ],
      "stateMutability": "view",
      "type": "function",
      "constant": true
    },
    {
      "inputs": [],
      "name": "name",
      "outputs": [
        {
          "internalType": "string",
          "name": "",
          "type": "string"
        }
      ],
      "stateMutability": "view",
      "type": "function",
      "constant": true
    },
    {
      "inputs": [
        {
          "internalType": "uint256",
          "name": "tokenId",
          "type": "uint256"
        }
      ],
      "name": "ownerOf",
      "outputs": [
        {
          "internalType": "address",
          "name": "",
          "type": "address"
        }
      ],
      "stateMutability": "view",
      "type": "function",
      "constant": true
    },
    {
      "inputs": [
        {
          "internalType": "address",
          "name": "from",
          "type": "address"
        },
        {
          "internalType": "address",
          "name": "to",
          "type": "address"
        },
        {
          "internalType": "uint256",
          "name": "tokenId",
          "type": "uint256"
        }
      ],
      "name": "safeTransferFrom",
      "outputs": [],
      "stateMutability": "nonpayable",
      "type": "function"
    },
    {
      "inputs": [
        {
          "internalType": "address",
          "name": "from",
          "type": "address"
        },
        {
          "internalType": "address",
          "name": "to",
          "type": "address"
        },
        {
          "internalType": "uint256",
          "name": "tokenId",
          "type": "uint256"
        },
        {
          "internalType": "bytes",
          "name": "_data",
          "type": "bytes"
        }
      ],
      "name": "safeTransferFrom",
      "outputs": [],
      "stateMutability": "nonpayable",
      "type": "function"
    },
    {
      "inputs": [
        {
          "internalType": "address",
          "name": "operator",
          "type": "address"
        },
        {
          "internalType": "bool",
          "name": "approved",
          "type": "bool"
        }
      ],
      "name": "setApprovalForAll",
      "outputs": [],
      "stateMutability": "nonpayable",
      "type": "function"
    },
    {
      "inputs": [
        {
          "internalType": "bytes4",
          "name": "interfaceId",
          "type": "bytes4"
        }
      ],
      "name": "supportsInterface",
      "outputs": [
        {
          "internalType": "bool",
          "name": "",
          "type": "bool"
        }
      ],
      "stateMutability": "view",
      "type": "function",
      "constant": true
    },
    {
      "inputs": [],
      "name": "symbol",
      "outputs": [
        {
          "internalType": "string",
          "name": "",
          "type": "string"
        }
      ],
      "stateMutability": "view",
      "type": "function",
      "constant": true
    },
    {
      "inputs": [
        {
          "internalType": "address",
          "name": "from",
          "type": "address"
        },
        {
          "internalType": "address",
          "name": "to",
          "type": "address"
        },
        {
          "internalType": "uint256",
          "name": "tokenId",
          "type": "uint256"
        }
      ],
      "name": "transferFrom",
      "outputs": [],
      "stateMutability": "nonpayable",
      "type": "function"
    },
    {
      "inputs": [],
      "name": "contractURI",
      "outputs": [
        {
          "internalType": "string",
          "name": "",
          "type": "string"
        }
      ],
      "stateMutability": "pure",
      "type": "function",
      "constant": true
    },
    {
      "inputs": [],
      "name": "totalSupply",
      "outputs": [
        {
          "internalType": "uint256",
          "name": "",
          "type": "uint256"
        }
      ],
      "stateMutability": "view",
      "type": "function",
      "constant": true
    },
    {
      "inputs": [
        {
          "internalType": "uint256",
          "name": "tokenId",
          "type": "uint256"
        }
      ],
      "name": "tokenURI",
      "outputs": [
        {
          "internalType": "string",
          "name": "",
          "type": "string"
        }
      ],
      "stateMutability": "view",
      "type": "function",
      "constant": true
    }
  ],
  "bytecode": "0x608060405260006007553480156200001657600080fd5b506040518060400160405280600a81526020017f466f78636f6e32303232000000000000000000000000000000000000000000008152506040518060400160405280600581526020017f465843323200000000000000000000000000000000000000000000000000000081525081600090805190602001906200009b929190620006ff565b508060019080519060200190620000b4929190620006ff565b505050620000e5336103e96040518060600160405280602e815260200162003412602e91396200014a60201b60201c565b5062000114336103ea6040518060600160405280602e8152602001620033b6602e91396200014a60201b60201c565b5062000143336103eb6040518060600160405280602e8152602001620033e4602e91396200014a60201b60201c565b5062000cf4565b60006200015e84846200019560201b60201c565b620001708383620001bb60201b60201c565b60076000815480929190620001859062000b2d565b9190505550600190509392505050565b620001b78282604051806020016040528060008152506200023c60201b60201c565b5050565b620001cc82620002aa60201b60201c565b6200020e576040517f08c379a0000000000000000000000000000000000000000000000000000000008152600401620002059062000989565b60405180910390fd5b8060066000848152602001908152602001600020908051906020019062000237929190620006ff565b505050565b6200024e83836200031660201b60201c565b6200026360008484846200051060201b60201c565b620002a5576040517f08c379a00000000000000000000000000000000000000000000000000000000081526004016200029c9062000945565b60405180910390fd5b505050565b60008073ffffffffffffffffffffffffffffffffffffffff166002600084815260200190815260200160002060009054906101000a900473ffffffffffffffffffffffffffffffffffffffff1673ffffffffffffffffffffffffffffffffffffffff1614159050919050565b600073ffffffffffffffffffffffffffffffffffffffff168273ffffffffffffffffffffffffffffffffffffffff16141562000389576040517f08c379a00000000000000000000000000000000000000000000000000000000081526004016200038090620009ab565b60405180910390fd5b6200039a81620002aa60201b60201c565b15620003dd576040517f08c379a0000000000000000000000000000000000000000000000000000000008152600401620003d49062000967565b60405180910390fd5b620003f160008383620006ca60201b60201c565b6001600360008473ffffffffffffffffffffffffffffffffffffffff1673ffffffffffffffffffffffffffffffffffffffff1681526020019081526020016000206000828254620004439190620009fa565b92505081905550816002600083815260200190815260200160002060006101000a81548173ffffffffffffffffffffffffffffffffffffffff021916908373ffffffffffffffffffffffffffffffffffffffff160217905550808273ffffffffffffffffffffffffffffffffffffffff16600073ffffffffffffffffffffffffffffffffffffffff167fddf252ad1be2c89b69c2b068fc378daa952ba7f163c4a11628f55a4df523b3ef60405160405180910390a46200050c60008383620006cf60201b60201c565b5050565b60006200053e8473ffffffffffffffffffffffffffffffffffffffff16620006d460201b620009f31760201c565b15620006bd578373ffffffffffffffffffffffffffffffffffffffff1663150b7a0262000570620006f760201b60201c565b8786866040518563ffffffff1660e01b8152600401620005949493929190620008f1565b602060405180830381600087803b158015620005af57600080fd5b505af1925050508015620005e357506040513d601f19601f82011682018060405250810190620005e09190620007c6565b60015b6200066c573d806000811462000616576040519150601f19603f3d011682016040523d82523d6000602084013e6200061b565b606091505b5060008151141562000664576040517f08c379a00000000000000000000000000000000000000000000000000000000081526004016200065b9062000945565b60405180910390fd5b805181602001fd5b63150b7a0260e01b7bffffffffffffffffffffffffffffffffffffffffffffffffffffffff1916817bffffffffffffffffffffffffffffffffffffffffffffffffffffffff191614915050620006c2565b600190505b949350505050565b505050565b505050565b6000808273ffffffffffffffffffffffffffffffffffffffff163b119050919050565b600033905090565b8280546200070d9062000af7565b90600052602060002090601f0160209004810192826200073157600085556200077d565b82601f106200074c57805160ff19168380011785556200077d565b828001600101855582156200077d579182015b828111156200077c5782518255916020019190600101906200075f565b5b5090506200078c919062000790565b5090565b5b80821115620007ab57600081600090555060010162000791565b5090565b600081519050620007c08162000cda565b92915050565b600060208284031215620007d957600080fd5b6000620007e984828501620007af565b91505092915050565b620007fd8162000a57565b82525050565b60006200081082620009cd565b6200081c8185620009d8565b93506200082e81856020860162000ac1565b620008398162000bd9565b840191505092915050565b600062000853603283620009e9565b9150620008608262000bea565b604082019050919050565b60006200087a601c83620009e9565b9150620008878262000c39565b602082019050919050565b6000620008a1602e83620009e9565b9150620008ae8262000c62565b604082019050919050565b6000620008c8602083620009e9565b9150620008d58262000cb1565b602082019050919050565b620008eb8162000ab7565b82525050565b6000608082019050620009086000830187620007f2565b620009176020830186620007f2565b620009266040830185620008e0565b81810360608301526200093a818462000803565b905095945050505050565b60006020820190508181036000830152620009608162000844565b9050919050565b6000602082019050818103600083015262000982816200086b565b9050919050565b60006020820190508181036000830152620009a48162000892565b9050919050565b60006020820190508181036000830152620009c681620008b9565b9050919050565b600081519050919050565b600082825260208201905092915050565b600082825260208201905092915050565b600062000a078262000ab7565b915062000a148362000ab7565b9250827fffffffffffffffffffffffffffffffffffffffffffffffffffffffffffffffff0382111562000a4c5762000a4b62000b7b565b5b828201905092915050565b600062000a648262000a97565b9050919050565b60007fffffffff0000000000000000000000000000000000000000000000000000000082169050919050565b600073ffffffffffffffffffffffffffffffffffffffff82169050919050565b6000819050919050565b60005b8381101562000ae157808201518184015260208101905062000ac4565b8381111562000af1576000848401525b50505050565b6000600282049050600182168062000b1057607f821691505b6020821081141562000b275762000b2662000baa565b5b50919050565b600062000b3a8262000ab7565b91507fffffffffffffffffffffffffffffffffffffffffffffffffffffffffffffffff82141562000b705762000b6f62000b7b565b5b600182019050919050565b7f4e487b7100000000000000000000000000000000000000000000000000000000600052601160045260246000fd5b7f4e487b7100000000000000000000000000000000000000000000000000000000600052602260045260246000fd5b6000601f19601f8301169050919050565b7f4552433732313a207472616e7366657220746f206e6f6e20455243373231526560008201527f63656976657220696d706c656d656e7465720000000000000000000000000000602082015250565b7f4552433732313a20746f6b656e20616c7265616479206d696e74656400000000600082015250565b7f45524337323155524953746f726167653a2055524920736574206f66206e6f6e60008201527f6578697374656e7420746f6b656e000000000000000000000000000000000000602082015250565b7f4552433732313a206d696e7420746f20746865207a65726f2061646472657373600082015250565b62000ce58162000a6b565b811462000cf157600080fd5b50565b6126b28062000d046000396000f3fe608060405234801561001057600080fd5b50600436106100f55760003560e01c80636352211e11610097578063b88d4fde11610066578063b88d4fde14610284578063c87b56dd146102a0578063e8a3d485146102d0578063e985e9c5146102ee576100f5565b80636352211e146101ea57806370a082311461021a57806395d89b411461024a578063a22cb46514610268576100f5565b8063095ea7b3116100d3578063095ea7b31461017857806318160ddd1461019457806323b872dd146101b257806342842e0e146101ce576100f5565b806301ffc9a7146100fa57806306fdde031461012a578063081812fc14610148575b600080fd5b610114600480360381019061010f91906118b7565b61031e565b6040516101219190611c54565b60405180910390f35b610132610400565b60405161013f9190611c6f565b60405180910390f35b610162600480360381019061015d9190611909565b610492565b60405161016f9190611bed565b60405180910390f35b610192600480360381019061018d919061187b565b610517565b005b61019c61062f565b6040516101a99190611e31565b60405180910390f35b6101cc60048036038101906101c79190611775565b610639565b005b6101e860048036038101906101e39190611775565b610699565b005b61020460048036038101906101ff9190611909565b6106b9565b6040516102119190611bed565b60405180910390f35b610234600480360381019061022f9190611710565b61076b565b6040516102419190611e31565b60405180910390f35b610252610823565b60405161025f9190611c6f565b60405180910390f35b610282600480360381019061027d919061183f565b6108b5565b005b61029e600480360381019061029991906117c4565b6108cb565b005b6102ba60048036038101906102b59190611909565b61092d565b6040516102c79190611c6f565b60405180910390f35b6102d861093f565b6040516102e59190611c6f565b60405180910390f35b61030860048036038101906103039190611739565b61095f565b6040516103159190611c54565b60405180910390f35b60007f80ac58cd000000000000000000000000000000000000000000000000000000007bffffffffffffffffffffffffffffffffffffffffffffffffffffffff1916827bffffffffffffffffffffffffffffffffffffffffffffffffffffffff191614806103e957507f5b5e139f000000000000000000000000000000000000000000000000000000007bffffffffffffffffffffffffffffffffffffffffffffffffffffffff1916827bffffffffffffffffffffffffffffffffffffffffffffffffffffffff1916145b806103f957506103f882610a16565b5b9050919050565b60606000805461040f90612056565b80601f016020809104026020016040519081016040528092919081815260200182805461043b90612056565b80156104885780601f1061045d57610100808354040283529160200191610488565b820191906000526020600020905b81548152906001019060200180831161046b57829003601f168201915b5050505050905090565b600061049d82610a80565b6104dc576040517f08c379a00000000000000000000000000000000000000000000000000000000081526004016104d390611db1565b60405180910390fd5b6004600083815260200190815260200160002060009054906101000a900473ffffffffffffffffffffffffffffffffffffffff169050919050565b6000610522826106b9565b90508073ffffffffffffffffffffffffffffffffffffffff168373ffffffffffffffffffffffffffffffffffffffff161415610593576040517f08c379a000000000000000000000000000000000000000000000000000000000815260040161058a90611df1565b60405180910390fd5b8073ffffffffffffffffffffffffffffffffffffffff166105b2610aec565b73ffffffffffffffffffffffffffffffffffffffff1614806105e157506105e0816105db610aec565b61095f565b5b610620576040517f08c379a000000000000000000000000000000000000000000000000000000000815260040161061790611d31565b60405180910390fd5b61062a8383610af4565b505050565b6000600754905090565b61064a610644610aec565b82610bad565b610689576040517f08c379a000000000000000000000000000000000000000000000000000000000815260040161068090611e11565b60405180910390fd5b610694838383610c8b565b505050565b6106b4838383604051806020016040528060008152506108cb565b505050565b6000806002600084815260200190815260200160002060009054906101000a900473ffffffffffffffffffffffffffffffffffffffff169050600073ffffffffffffffffffffffffffffffffffffffff168173ffffffffffffffffffffffffffffffffffffffff161415610762576040517f08c379a000000000000000000000000000000000000000000000000000000000815260040161075990611d71565b60405180910390fd5b80915050919050565b60008073ffffffffffffffffffffffffffffffffffffffff168273ffffffffffffffffffffffffffffffffffffffff1614156107dc576040517f08c379a00000000000000000000000000000000000000000000000000000000081526004016107d390611d51565b60405180910390fd5b600360008373ffffffffffffffffffffffffffffffffffffffff1673ffffffffffffffffffffffffffffffffffffffff168152602001908152602001600020549050919050565b60606001805461083290612056565b80601f016020809104026020016040519081016040528092919081815260200182805461085e90612056565b80156108ab5780601f10610880576101008083540402835291602001916108ab565b820191906000526020600020905b81548152906001019060200180831161088e57829003601f168201915b5050505050905090565b6108c76108c0610aec565b8383610ef2565b5050565b6108dc6108d6610aec565b83610bad565b61091b576040517f08c379a000000000000000000000000000000000000000000000000000000000815260040161091290611e11565b60405180910390fd5b6109278484848461105f565b50505050565b6060610938826110bb565b9050919050565b606060405180608001604052806043815260200161263a60439139905090565b6000600560008473ffffffffffffffffffffffffffffffffffffffff1673ffffffffffffffffffffffffffffffffffffffff16815260200190815260200160002060008373ffffffffffffffffffffffffffffffffffffffff1673ffffffffffffffffffffffffffffffffffffffff16815260200190815260200160002060009054906101000a900460ff16905092915050565b6000808273ffffffffffffffffffffffffffffffffffffffff163b119050919050565b60007f01ffc9a7000000000000000000000000000000000000000000000000000000007bffffffffffffffffffffffffffffffffffffffffffffffffffffffff1916827bffffffffffffffffffffffffffffffffffffffffffffffffffffffff1916149050919050565b60008073ffffffffffffffffffffffffffffffffffffffff166002600084815260200190815260200160002060009054906101000a900473ffffffffffffffffffffffffffffffffffffffff1673ffffffffffffffffffffffffffffffffffffffff1614159050919050565b600033905090565b816004600083815260200190815260200160002060006101000a81548173ffffffffffffffffffffffffffffffffffffffff021916908373ffffffffffffffffffffffffffffffffffffffff160217905550808273ffffffffffffffffffffffffffffffffffffffff16610b67836106b9565b73ffffffffffffffffffffffffffffffffffffffff167f8c5be1e5ebec7d5bd14f71427d1e84f3dd0314c0f7b2291e5b200ac8c7c3b92560405160405180910390a45050565b6000610bb882610a80565b610bf7576040517f08c379a0000000000000000000000000000000000000000000000000000000008152600401610bee90611d11565b60405180910390fd5b6000610c02836106b9565b90508073ffffffffffffffffffffffffffffffffffffffff168473ffffffffffffffffffffffffffffffffffffffff161480610c7157508373ffffffffffffffffffffffffffffffffffffffff16610c5984610492565b73ffffffffffffffffffffffffffffffffffffffff16145b80610c825750610c81818561095f565b5b91505092915050565b8273ffffffffffffffffffffffffffffffffffffffff16610cab826106b9565b73ffffffffffffffffffffffffffffffffffffffff1614610d01576040517f08c379a0000000000000000000000000000000000000000000000000000000008152600401610cf890611cb1565b60405180910390fd5b600073ffffffffffffffffffffffffffffffffffffffff168273ffffffffffffffffffffffffffffffffffffffff161415610d71576040517f08c379a0000000000000000000000000000000000000000000000000000000008152600401610d6890611cd1565b60405180910390fd5b610d7c83838361120d565b610d87600082610af4565b6001600360008573ffffffffffffffffffffffffffffffffffffffff1673ffffffffffffffffffffffffffffffffffffffff1681526020019081526020016000206000828254610dd79190611f6c565b925050819055506001600360008473ffffffffffffffffffffffffffffffffffffffff1673ffffffffffffffffffffffffffffffffffffffff1681526020019081526020016000206000828254610e2e9190611ee5565b92505081905550816002600083815260200190815260200160002060006101000a81548173ffffffffffffffffffffffffffffffffffffffff021916908373ffffffffffffffffffffffffffffffffffffffff160217905550808273ffffffffffffffffffffffffffffffffffffffff168473ffffffffffffffffffffffffffffffffffffffff167fddf252ad1be2c89b69c2b068fc378daa952ba7f163c4a11628f55a4df523b3ef60405160405180910390a4610eed838383611212565b505050565b8173ffffffffffffffffffffffffffffffffffffffff168373ffffffffffffffffffffffffffffffffffffffff161415610f61576040517f08c379a0000000000000000000000000000000000000000000000000000000008152600401610f5890611cf1565b60405180910390fd5b80600560008573ffffffffffffffffffffffffffffffffffffffff1673ffffffffffffffffffffffffffffffffffffffff16815260200190815260200160002060008473ffffffffffffffffffffffffffffffffffffffff1673ffffffffffffffffffffffffffffffffffffffff16815260200190815260200160002060006101000a81548160ff0219169083151502179055508173ffffffffffffffffffffffffffffffffffffffff168373ffffffffffffffffffffffffffffffffffffffff167f17307eab39ab6107e8899845ad3d59bd9653f200f220920489ca2b5937696c31836040516110529190611c54565b60405180910390a3505050565b61106a848484610c8b565b61107684848484611217565b6110b5576040517f08c379a00000000000000000000000000000000000000000000000000000000081526004016110ac90611c91565b60405180910390fd5b50505050565b60606110c682610a80565b611105576040517f08c379a00000000000000000000000000000000000000000000000000000000081526004016110fc90611d91565b60405180910390fd5b600060066000848152602001908152602001600020805461112590612056565b80601f016020809104026020016040519081016040528092919081815260200182805461115190612056565b801561119e5780601f106111735761010080835404028352916020019161119e565b820191906000526020600020905b81548152906001019060200180831161118157829003601f168201915b5050505050905060006111af6113ae565b90506000815114156111c5578192505050611208565b6000825111156111fa5780826040516020016111e2929190611bc9565b60405160208183030381529060405292505050611208565b611203846113eb565b925050505b919050565b505050565b505050565b60006112388473ffffffffffffffffffffffffffffffffffffffff166109f3565b156113a1578373ffffffffffffffffffffffffffffffffffffffff1663150b7a02611261610aec565b8786866040518563ffffffff1660e01b81526004016112839493929190611c08565b602060405180830381600087803b15801561129d57600080fd5b505af19250505080156112ce57506040513d601f19601f820116820180604052508101906112cb91906118e0565b60015b611351573d80600081146112fe576040519150601f19603f3d011682016040523d82523d6000602084013e611303565b606091505b50600081511415611349576040517f08c379a000000000000000000000000000000000000000000000000000000000815260040161134090611c91565b60405180910390fd5b805181602001fd5b63150b7a0260e01b7bffffffffffffffffffffffffffffffffffffffffffffffffffffffff1916817bffffffffffffffffffffffffffffffffffffffffffffffffffffffff1916149150506113a6565b600190505b949350505050565b60606040518060400160405280601581526020017f68747470733a2f2f697066732e696f2f697066732f0000000000000000000000815250905090565b60606113f682610a80565b611435576040517f08c379a000000000000000000000000000000000000000000000000000000000815260040161142c90611dd1565b60405180910390fd5b600061143f6113ae565b9050600081511161145f576040518060200160405280600081525061148a565b8061146984611492565b60405160200161147a929190611bc9565b6040516020818303038152906040525b915050919050565b606060008214156114da576040518060400160405280600181526020017f3000000000000000000000000000000000000000000000000000000000000000815250905061163a565b600082905060005b6000821461150c5780806114f5906120b9565b915050600a826115059190611f3b565b91506114e2565b60008167ffffffffffffffff81111561154e577f4e487b7100000000000000000000000000000000000000000000000000000000600052604160045260246000fd5b6040519080825280601f01601f1916602001820160405280156115805781602001600182028036833780820191505090505b5090505b60008514611633576001826115999190611f6c565b9150600a856115a89190612102565b60306115b49190611ee5565b60f81b8183815181106115f0577f4e487b7100000000000000000000000000000000000000000000000000000000600052603260045260246000fd5b60200101907effffffffffffffffffffffffffffffffffffffffffffffffffffffffffffff1916908160001a905350600a8561162c9190611f3b565b9450611584565b8093505050505b919050565b600061165261164d84611e71565b611e4c565b90508281526020810184848401111561166a57600080fd5b611675848285612014565b509392505050565b60008135905061168c816125dd565b92915050565b6000813590506116a1816125f4565b92915050565b6000813590506116b68161260b565b92915050565b6000815190506116cb8161260b565b92915050565b600082601f8301126116e257600080fd5b81356116f284826020860161163f565b91505092915050565b60008135905061170a81612622565b92915050565b60006020828403121561172257600080fd5b60006117308482850161167d565b91505092915050565b6000806040838503121561174c57600080fd5b600061175a8582860161167d565b925050602061176b8582860161167d565b9150509250929050565b60008060006060848603121561178a57600080fd5b60006117988682870161167d565b93505060206117a98682870161167d565b92505060406117ba868287016116fb565b9150509250925092565b600080600080608085870312156117da57600080fd5b60006117e88782880161167d565b94505060206117f98782880161167d565b935050604061180a878288016116fb565b925050606085013567ffffffffffffffff81111561182757600080fd5b611833878288016116d1565b91505092959194509250565b6000806040838503121561185257600080fd5b60006118608582860161167d565b925050602061187185828601611692565b9150509250929050565b6000806040838503121561188e57600080fd5b600061189c8582860161167d565b92505060206118ad858286016116fb565b9150509250929050565b6000602082840312156118c957600080fd5b60006118d7848285016116a7565b91505092915050565b6000602082840312156118f257600080fd5b6000611900848285016116bc565b91505092915050565b60006020828403121561191b57600080fd5b6000611929848285016116fb565b91505092915050565b61193b81611fa0565b82525050565b61194a81611fb2565b82525050565b600061195b82611ea2565b6119658185611eb8565b9350611975818560208601612023565b61197e816121ef565b840191505092915050565b600061199482611ead565b61199e8185611ec9565b93506119ae818560208601612023565b6119b7816121ef565b840191505092915050565b60006119cd82611ead565b6119d78185611eda565b93506119e7818560208601612023565b80840191505092915050565b6000611a00603283611ec9565b9150611a0b82612200565b604082019050919050565b6000611a23602583611ec9565b9150611a2e8261224f565b604082019050919050565b6000611a46602483611ec9565b9150611a518261229e565b604082019050919050565b6000611a69601983611ec9565b9150611a74826122ed565b602082019050919050565b6000611a8c602c83611ec9565b9150611a9782612316565b604082019050919050565b6000611aaf603883611ec9565b9150611aba82612365565b604082019050919050565b6000611ad2602a83611ec9565b9150611add826123b4565b604082019050919050565b6000611af5602983611ec9565b9150611b0082612403565b604082019050919050565b6000611b18603183611ec9565b9150611b2382612452565b604082019050919050565b6000611b3b602c83611ec9565b9150611b46826124a1565b604082019050919050565b6000611b5e602f83611ec9565b9150611b69826124f0565b604082019050919050565b6000611b81602183611ec9565b9150611b8c8261253f565b604082019050919050565b6000611ba4603183611ec9565b9150611baf8261258e565b604082019050919050565b611bc38161200a565b82525050565b6000611bd582856119c2565b9150611be182846119c2565b91508190509392505050565b6000602082019050611c026000830184611932565b92915050565b6000608082019050611c1d6000830187611932565b611c2a6020830186611932565b611c376040830185611bba565b8181036060830152611c498184611950565b905095945050505050565b6000602082019050611c696000830184611941565b92915050565b60006020820190508181036000830152611c898184611989565b905092915050565b60006020820190508181036000830152611caa816119f3565b9050919050565b60006020820190508181036000830152611cca81611a16565b9050919050565b60006020820190508181036000830152611cea81611a39565b9050919050565b60006020820190508181036000830152611d0a81611a5c565b9050919050565b60006020820190508181036000830152611d2a81611a7f565b9050919050565b60006020820190508181036000830152611d4a81611aa2565b9050919050565b60006020820190508181036000830152611d6a81611ac5565b9050919050565b60006020820190508181036000830152611d8a81611ae8565b9050919050565b60006020820190508181036000830152611daa81611b0b565b9050919050565b60006020820190508181036000830152611dca81611b2e565b9050919050565b60006020820190508181036000830152611dea81611b51565b9050919050565b60006020820190508181036000830152611e0a81611b74565b9050919050565b60006020820190508181036000830152611e2a81611b97565b9050919050565b6000602082019050611e466000830184611bba565b92915050565b6000611e56611e67565b9050611e628282612088565b919050565b6000604051905090565b600067ffffffffffffffff821115611e8c57611e8b6121c0565b5b611e95826121ef565b9050602081019050919050565b600081519050919050565b600081519050919050565b600082825260208201905092915050565b600082825260208201905092915050565b600081905092915050565b6000611ef08261200a565b9150611efb8361200a565b9250827fffffffffffffffffffffffffffffffffffffffffffffffffffffffffffffffff03821115611f3057611f2f612133565b5b828201905092915050565b6000611f468261200a565b9150611f518361200a565b925082611f6157611f60612162565b5b828204905092915050565b6000611f778261200a565b9150611f828361200a565b925082821015611f9557611f94612133565b5b828203905092915050565b6000611fab82611fea565b9050919050565b60008115159050919050565b60007fffffffff0000000000000000000000000000000000000000000000000000000082169050919050565b600073ffffffffffffffffffffffffffffffffffffffff82169050919050565b6000819050919050565b82818337600083830152505050565b60005b83811015612041578082015181840152602081019050612026565b83811115612050576000848401525b50505050565b6000600282049050600182168061206e57607f821691505b6020821081141561208257612081612191565b5b50919050565b612091826121ef565b810181811067ffffffffffffffff821117156120b0576120af6121c0565b5b80604052505050565b60006120c48261200a565b91507fffffffffffffffffffffffffffffffffffffffffffffffffffffffffffffffff8214156120f7576120f6612133565b5b600182019050919050565b600061210d8261200a565b91506121188361200a565b92508261212857612127612162565b5b828206905092915050565b7f4e487b7100000000000000000000000000000000000000000000000000000000600052601160045260246000fd5b7f4e487b7100000000000000000000000000000000000000000000000000000000600052601260045260246000fd5b7f4e487b7100000000000000000000000000000000000000000000000000000000600052602260045260246000fd5b7f4e487b7100000000000000000000000000000000000000000000000000000000600052604160045260246000fd5b6000601f19601f8301169050919050565b7f4552433732313a207472616e7366657220746f206e6f6e20455243373231526560008201527f63656976657220696d706c656d656e7465720000000000000000000000000000602082015250565b7f4552433732313a207472616e736665722066726f6d20696e636f72726563742060008201527f6f776e6572000000000000000000000000000000000000000000000000000000602082015250565b7f4552433732313a207472616e7366657220746f20746865207a65726f2061646460008201527f7265737300000000000000000000000000000000000000000000000000000000602082015250565b7f4552433732313a20617070726f766520746f2063616c6c657200000000000000600082015250565b7f4552433732313a206f70657261746f7220717565727920666f72206e6f6e657860008201527f697374656e7420746f6b656e0000000000000000000000000000000000000000602082015250565b7f4552433732313a20617070726f76652063616c6c6572206973206e6f74206f7760008201527f6e6572206e6f7220617070726f76656420666f7220616c6c0000000000000000602082015250565b7f4552433732313a2062616c616e636520717565727920666f7220746865207a6560008201527f726f206164647265737300000000000000000000000000000000000000000000602082015250565b7f4552433732313a206f776e657220717565727920666f72206e6f6e657869737460008201527f656e7420746f6b656e0000000000000000000000000000000000000000000000602082015250565b7f45524337323155524953746f726167653a2055524920717565727920666f722060008201527f6e6f6e6578697374656e7420746f6b656e000000000000000000000000000000602082015250565b7f4552433732313a20617070726f76656420717565727920666f72206e6f6e657860008201527f697374656e7420746f6b656e0000000000000000000000000000000000000000602082015250565b7f4552433732314d657461646174613a2055524920717565727920666f72206e6f60008201527f6e6578697374656e7420746f6b656e0000000000000000000000000000000000602082015250565b7f4552433732313a20617070726f76616c20746f2063757272656e74206f776e6560008201527f7200000000000000000000000000000000000000000000000000000000000000602082015250565b7f4552433732313a207472616e736665722063616c6c6572206973206e6f74206f60008201527f776e6572206e6f7220617070726f766564000000000000000000000000000000602082015250565b6125e681611fa0565b81146125f157600080fd5b50565b6125fd81611fb2565b811461260857600080fd5b50565b61261481611fbe565b811461261f57600080fd5b50565b61262b8161200a565b811461263657600080fd5b5056fe68747470733a2f2f697066732e696f2f697066732f516d52524e616e4675797052537842377432616f7966564d45526d6177657a38314157446f616a47476944685664a2646970667358221220cf57a57376313fa139a4a8b4b7378b001cf4df080c2bcc0e3746295614666a0464736f6c63430008040033516d5238344535564c6738437559796b793675666f6d536874613379614a546d6268667a41724737764164765336516d57556357706831323642485936795639684d386646746465697456627a714169686532795a7a4d626553764b516d6372695a43656f76785736316d595936684e66595831626d4c6839674655443239346a6871554b6b4155726b",
  "immutableReferences": {},
  "source": "// SPDX-License-Identifier: MIT\npragma solidity ^0.8.4;\n\nimport \"@openzeppelin/contracts/token/ERC721/ERC721.sol\";\nimport \"@openzeppelin/contracts/token/ERC721/extensions/ERC721URIStorage.sol\";\n\ncontract Foxcon2022 is ERC721, ERC721URIStorage {\n    uint256 _myTotalSupply = 0;\n    constructor() ERC721(\"Foxcon2022\", \"FXC22\") {\n      // (to: who owns it?, tokenId: what token is owned?)\n      _createTicket(msg.sender, 1001, \"QmcriZCeovxW61mYY6hNfYX1bmLh9gFUD294jhqUKkAUrk\");\n      _createTicket(msg.sender, 1002, \"QmR84E5VLg8CuYyky6ufomShta3yaJTmbhfzArG7vAdvS6\");\n      _createTicket(msg.sender, 1003, \"QmWUcWph126BHY6yV9hM8fFtdeitVbzqAihe2yZzMbeSvK\");\n    }\n\n    function contractURI() public pure returns (string memory) {\n      return \"https://ipfs.io/ipfs/QmRRNanFuypRSxB7t2aoyfVMERmawez81AWDoajGGiDhVd\";\n    }\n\n    function _createTicket(address to, uint id, string memory url) private returns(bool) {\n      _safeMint(to, id);\n      _setTokenURI(id, url);\n      _myTotalSupply++;\n      return true;\n    }\n\n    function totalSupply() view public returns(uint256) {\n      return _myTotalSupply;\n    }\n\n    function _baseURI() internal pure override returns (string memory) {\n      return \"https://ipfs.io/ipfs/\";\n    }\n\n    // The following functions are overrides required by Solidity.\n\n    function _burn(uint256 tokenId) internal override(ERC721, ERC721URIStorage) {\n      super._burn(tokenId);\n    }\n\n    function tokenURI(uint256 tokenId) public view override(ERC721, ERC721URIStorage) returns (string memory) {\n      return super.tokenURI(tokenId);\n    }\n}",
  "sourcePath": "/Users/eric/src/github/metamask/nft-tickets-workshop/contracts/Foxcon2022.sol",
  "compiler": {
    "name": "solc",
    "version": "0.8.4+commit.c7e474f2.Emscripten.clang"
  },
  "schemaVersion": "3.4.5",
  "updatedAt": "2022-03-04T20:59:08.280Z",
  "networkType": "ethereum",
  "devdoc": {
    "kind": "dev",
    "methods": {
      "approve(address,uint256)": {
        "details": "See {IERC721-approve}."
      },
      "balanceOf(address)": {
        "details": "See {IERC721-balanceOf}."
      },
      "getApproved(uint256)": {
        "details": "See {IERC721-getApproved}."
      },
      "isApprovedForAll(address,address)": {
        "details": "See {IERC721-isApprovedForAll}."
      },
      "name()": {
        "details": "See {IERC721Metadata-name}."
      },
      "ownerOf(uint256)": {
        "details": "See {IERC721-ownerOf}."
      },
      "safeTransferFrom(address,address,uint256)": {
        "details": "See {IERC721-safeTransferFrom}."
      },
      "safeTransferFrom(address,address,uint256,bytes)": {
        "details": "See {IERC721-safeTransferFrom}."
      },
      "setApprovalForAll(address,bool)": {
        "details": "See {IERC721-setApprovalForAll}."
      },
      "supportsInterface(bytes4)": {
        "details": "See {IERC165-supportsInterface}."
      },
      "symbol()": {
        "details": "See {IERC721Metadata-symbol}."
      },
      "transferFrom(address,address,uint256)": {
        "details": "See {IERC721-transferFrom}."
      }
    },
    "version": 1
  },
  "userdoc": {
    "kind": "user",
    "methods": {},
    "version": 1
  }
}